{
  "contractName": "Election",
  "abi": [
    {
      "constant": true,
      "inputs": [],
      "name": "electionState",
      "outputs": [
        {
          "name": "",
          "type": "uint256"
        }
      ],
      "payable": false,
      "stateMutability": "view",
      "type": "function",
      "signature": "0x2280043d"
    },
    {
      "constant": true,
      "inputs": [
        {
          "name": "",
          "type": "uint256"
        }
      ],
      "name": "candidates",
      "outputs": [
        {
          "name": "id",
          "type": "uint256"
        },
        {
          "name": "name",
          "type": "string"
        },
        {
          "name": "party",
          "type": "string"
        },
        {
          "name": "noOfVotes",
          "type": "uint256"
        },
        {
          "name": "exists",
          "type": "bool"
        }
      ],
      "payable": false,
      "stateMutability": "view",
      "type": "function",
      "signature": "0x3477ee2e"
    },
    {
      "constant": true,
      "inputs": [],
      "name": "voterCount",
      "outputs": [
        {
          "name": "",
          "type": "uint256"
        }
      ],
      "payable": false,
      "stateMutability": "view",
      "type": "function",
      "signature": "0x42169e48"
    },
    {
      "constant": true,
      "inputs": [],
      "name": "candidateCount",
      "outputs": [
        {
          "name": "",
          "type": "uint256"
        }
      ],
      "payable": false,
      "stateMutability": "view",
      "type": "function",
      "signature": "0xa9a981a3"
    },
    {
      "constant": true,
      "inputs": [
        {
          "name": "",
          "type": "uint256"
        }
      ],
      "name": "voters",
      "outputs": [
        {
          "name": "name",
          "type": "string"
        },
        {
          "name": "voterId",
          "type": "uint256"
        },
        {
          "name": "accountAddress",
          "type": "address"
        },
        {
          "name": "authorized",
          "type": "bool"
        },
        {
          "name": "voted",
          "type": "bool"
        },
        {
          "name": "exists",
          "type": "bool"
        }
      ],
      "payable": false,
      "stateMutability": "view",
      "type": "function",
      "signature": "0xda58c7d9"
    },
    {
      "inputs": [],
      "payable": false,
      "stateMutability": "nonpayable",
      "type": "constructor",
      "signature": "constructor"
    },
    {
      "anonymous": false,
      "inputs": [
        {
          "indexed": false,
          "name": "name",
          "type": "string"
        },
        {
          "indexed": false,
          "name": "voterId",
          "type": "uint256"
        },
        {
          "indexed": false,
          "name": "accountAddress",
          "type": "address"
        }
      ],
      "name": "VoterCreated",
      "type": "event",
      "signature": "0x7e4422a4ddf8a88b4a912b15dfbe991da3282835439dc55dcce86d27457baaf7"
    },
    {
      "anonymous": false,
      "inputs": [
        {
          "indexed": false,
          "name": "name",
          "type": "string"
        },
        {
          "indexed": false,
          "name": "party",
          "type": "string"
        }
      ],
      "name": "CandidateCreated",
      "type": "event",
      "signature": "0x2e54601340a570f400320f889c40c79d337a860379cf63e97d44c6386230b341"
    },
    {
      "anonymous": false,
      "inputs": [
        {
          "indexed": false,
          "name": "voterId",
          "type": "uint256"
        },
        {
          "indexed": false,
          "name": "candidateId",
          "type": "uint256"
        }
      ],
      "name": "VoterVoted",
      "type": "event",
      "signature": "0x888af08f757422d6a506e900aa26d9b2bdb7566a2983214e29ebdfaf06620554"
    },
    {
      "anonymous": false,
      "inputs": [],
      "name": "WinnerAnnounced",
      "type": "event",
      "signature": "0xd17fbb8c281c01c219753e566c00ac575de18d96f32b24ba8bc0dab527b9ce09"
    },
    {
      "constant": false,
      "inputs": [],
      "name": "startElection",
      "outputs": [],
      "payable": false,
      "stateMutability": "nonpayable",
      "type": "function",
      "signature": "0x62d73eb8"
    },
    {
      "constant": false,
      "inputs": [],
      "name": "startRegistartionPhase",
      "outputs": [],
      "payable": false,
      "stateMutability": "nonpayable",
      "type": "function",
      "signature": "0x35d56314"
    },
    {
      "constant": false,
      "inputs": [],
      "name": "startVotingPhase",
      "outputs": [],
      "payable": false,
      "stateMutability": "nonpayable",
      "type": "function",
      "signature": "0xcb43284e"
    },
    {
      "constant": false,
      "inputs": [],
      "name": "showResultsPhase",
      "outputs": [],
      "payable": false,
      "stateMutability": "nonpayable",
      "type": "function",
      "signature": "0x014d3b87"
    },
    {
      "constant": false,
      "inputs": [],
      "name": "endElection",
      "outputs": [],
      "payable": false,
      "stateMutability": "nonpayable",
      "type": "function",
      "signature": "0x59f78468"
    },
    {
      "constant": false,
      "inputs": [
        {
          "name": "_name",
          "type": "string"
        },
        {
          "name": "_voterId",
          "type": "uint256"
        }
      ],
      "name": "registerVoter",
      "outputs": [
        {
          "name": "",
          "type": "uint256"
        }
      ],
      "payable": false,
      "stateMutability": "nonpayable",
      "type": "function",
      "signature": "0xe661ea5f"
    },
    {
      "constant": false,
      "inputs": [
        {
          "name": "_name",
          "type": "string"
        },
        {
          "name": "_party",
          "type": "string"
        }
      ],
      "name": "registerCandidate",
      "outputs": [
        {
          "name": "",
          "type": "uint256"
        }
      ],
      "payable": false,
      "stateMutability": "nonpayable",
      "type": "function",
      "signature": "0x0dbce4dd"
    },
    {
      "constant": false,
      "inputs": [
        {
          "name": "_voterId",
          "type": "uint256"
        },
        {
          "name": "_candidateId",
          "type": "uint256"
        }
      ],
      "name": "vote",
      "outputs": [],
      "payable": false,
      "stateMutability": "nonpayable",
      "type": "function",
      "signature": "0xb384abef"
    },
    {
      "constant": false,
      "inputs": [
        {
          "name": "_voterId",
          "type": "uint256"
        }
      ],
      "name": "authorizeVoter",
      "outputs": [],
      "payable": false,
      "stateMutability": "nonpayable",
      "type": "function",
      "signature": "0x535c392f"
    },
    {
      "constant": true,
      "inputs": [],
      "name": "winnerOfElection",
      "outputs": [
        {
          "name": "winnerCandidteName",
          "type": "string"
        },
        {
          "name": "winnerPartyName",
          "type": "string"
        },
        {
          "name": "voteCount",
          "type": "uint256"
        }
      ],
      "payable": false,
      "stateMutability": "view",
      "type": "function",
      "signature": "0x199f30de"
    }
  ],
  "bytecode": "0x60806040526000600155600060035534801561001a57600080fd5b5033600560006101000a81548173ffffffffffffffffffffffffffffffffffffffff021916908373ffffffffffffffffffffffffffffffffffffffff1602179055506125078061006b6000396000f3fe6080604052600436106100db576000357c0100000000000000000000000000000000000000000000000000000000900463ffffffff168063014d3b87146100e05780630dbce4dd146100f7578063199f30de146101345780632280043d146101615780633477ee2e1461018c57806335d56314146101cd57806342169e48146101e4578063535c392f1461020f57806359f784681461023857806362d73eb81461024f578063a9a981a314610266578063b384abef14610291578063cb43284e146102ba578063da58c7d9146102d1578063e661ea5f14610313575b600080fd5b3480156100ec57600080fd5b506100f5610350565b005b34801561010357600080fd5b5061011e60048036036101199190810190611a11565b6103eb565b60405161012b9190612314565b60405180910390f35b34801561014057600080fd5b50610149610615565b60405161015893929190612049565b60405180910390f35b34801561016d57600080fd5b50610176610846565b6040516101839190612314565b60405180910390f35b34801561019857600080fd5b506101b360048036036101ae9190810190611ad1565b61084c565b6040516101c495949392919061232f565b60405180910390f35b3480156101d957600080fd5b506101e26109bf565b005b3480156101f057600080fd5b506101f9610a5b565b6040516102069190612314565b60405180910390f35b34801561021b57600080fd5b5061023660048036036102319190810190611ad1565b610a61565b005b34801561024457600080fd5b5061024d610bc4565b005b34801561025b57600080fd5b50610264610c60565b005b34801561027257600080fd5b5061027b610cfc565b6040516102889190612314565b60405180910390f35b34801561029d57600080fd5b506102b860048036036102b39190810190611afa565b610d02565b005b3480156102c657600080fd5b506102cf610ff4565b005b3480156102dd57600080fd5b506102f860048036036102f39190810190611ad1565b611090565b60405161030a969594939291906120cc565b60405180910390f35b34801561031f57600080fd5b5061033a60048036036103359190810190611a7d565b6111ab565b6040516103479190612314565b60405180910390f35b600560009054906101000a900473ffffffffffffffffffffffffffffffffffffffff1673ffffffffffffffffffffffffffffffffffffffff163373ffffffffffffffffffffffffffffffffffffffff161415156103e2576040517f08c379a00000000000000000000000000000000000000000000000000000000081526004016103d9906121b4565b60405180910390fd5b60048081905550565b6000600560009054906101000a900473ffffffffffffffffffffffffffffffffffffffff1673ffffffffffffffffffffffffffffffffffffffff163373ffffffffffffffffffffffffffffffffffffffff1614151561047f576040517f08c379a0000000000000000000000000000000000000000000000000000000008152600401610476906121b4565b60405180910390fd5b60026004541415156104c6576040517f08c379a00000000000000000000000000000000000000000000000000000000081526004016104bd90612234565b60405180910390fd5b6104cf826114a6565b1515610510576040517f08c379a000000000000000000000000000000000000000000000000000000000815260040161050790612174565b60405180910390fd5b60036000815480929190600101919050555060a0604051908101604052806003548152602001848152602001838152602001600081526020016001151581525060026000600354815260200190815260200160002060008201518160000155602082015181600101908051906020019061058b929190611902565b5060408201518160020190805190602001906105a8929190611902565b506060820151816003015560808201518160040160006101000a81548160ff0219169083151502179055509050507f2e54601340a570f400320f889c40c79d337a860379cf63e97d44c6386230b3418383604051610607929190612012565b60405180910390a192915050565b6060806000806000905060048054141515610665576040517f08c379a000000000000000000000000000000000000000000000000000000000815260040161065c906122f4565b60405180910390fd5b6000600190505b60016003540181101561083f57816002600083815260200190815260200160002060030154111561083257600260008281526020019081526020016000206003015491506000819050600260008281526020019081526020016000206001018054600181600116156101000203166002900480601f01602080910402602001604051908101604052809291908181526020018280546001816001161561010002031660029004801561075f5780601f106107345761010080835404028352916020019161075f565b820191906000526020600020905b81548152906001019060200180831161074257829003601f168201915b50505050509550600260008281526020019081526020016000206002018054600181600116156101000203166002900480601f0160208091040260200160405190810160405280929190818152602001828054600181600116156101000203166002900480156108105780601f106107e557610100808354040283529160200191610810565b820191906000526020600020905b8154815290600101906020018083116107f357829003601f168201915b5050505050945060026000828152602001908152602001600020600301549350505b808060010191505061066c565b5050909192565b60045481565b6002602052806000526040600020600091509050806000015490806001018054600181600116156101000203166002900480601f0160208091040260200160405190810160405280929190818152602001828054600181600116156101000203166002900480156108fe5780601f106108d3576101008083540402835291602001916108fe565b820191906000526020600020905b8154815290600101906020018083116108e157829003601f168201915b505050505090806002018054600181600116156101000203166002900480601f01602080910402602001604051908101604052809291908181526020018280546001816001161561010002031660029004801561099c5780601f106109715761010080835404028352916020019161099c565b820191906000526020600020905b81548152906001019060200180831161097f57829003601f168201915b5050505050908060030154908060040160009054906101000a900460ff16905085565b600560009054906101000a900473ffffffffffffffffffffffffffffffffffffffff1673ffffffffffffffffffffffffffffffffffffffff163373ffffffffffffffffffffffffffffffffffffffff16141515610a51576040517f08c379a0000000000000000000000000000000000000000000000000000000008152600401610a48906121b4565b60405180910390fd5b6002600481905550565b60015481565b600560009054906101000a900473ffffffffffffffffffffffffffffffffffffffff1673ffffffffffffffffffffffffffffffffffffffff163373ffffffffffffffffffffffffffffffffffffffff16141515610af3576040517f08c379a0000000000000000000000000000000000000000000000000000000008152600401610aea906121b4565b60405180910390fd5b6002600454141515610b3a576040517f08c379a0000000000000000000000000000000000000000000000000000000008152600401610b3190612294565b60405180910390fd5b610b438161167e565b151515610b85576040517f08c379a0000000000000000000000000000000000000000000000000000000008152600401610b7c90612274565b60405180910390fd5b6000610b9082611723565b9050600160008083815260200190815260200160002060020160146101000a81548160ff0219169083151502179055505050565b600560009054906101000a900473ffffffffffffffffffffffffffffffffffffffff1673ffffffffffffffffffffffffffffffffffffffff163373ffffffffffffffffffffffffffffffffffffffff16141515610c56576040517f08c379a0000000000000000000000000000000000000000000000000000000008152600401610c4d906121b4565b60405180910390fd5b6000600481905550565b600560009054906101000a900473ffffffffffffffffffffffffffffffffffffffff1673ffffffffffffffffffffffffffffffffffffffff163373ffffffffffffffffffffffffffffffffffffffff16141515610cf2576040517f08c379a0000000000000000000000000000000000000000000000000000000008152600401610ce9906121b4565b60405180910390fd5b6001600481905550565b60035481565b6003600454141515610d49576040517f08c379a0000000000000000000000000000000000000000000000000000000008152600401610d40906121d4565b60405180910390fd5b610d528261167e565b151515610d94576040517f08c379a0000000000000000000000000000000000000000000000000000000008152600401610d8b906121f4565b60405180910390fd5b600081118015610da657506003548111155b1515610de7576040517f08c379a0000000000000000000000000000000000000000000000000000000008152600401610dde906122b4565b60405180910390fd5b6000610df283611723565b90503373ffffffffffffffffffffffffffffffffffffffff1660008083815260200190815260200160002060020160009054906101000a900473ffffffffffffffffffffffffffffffffffffffff1673ffffffffffffffffffffffffffffffffffffffff16141515610e99576040517f08c379a0000000000000000000000000000000000000000000000000000000008152600401610e9090612194565b60405180910390fd5b60008082815260200190815260200160002060020160149054906101000a900460ff161515610efd576040517f08c379a0000000000000000000000000000000000000000000000000000000008152600401610ef490612214565b60405180910390fd5b60008082815260200190815260200160002060020160159054906101000a900460ff16151515610f62576040517f08c379a0000000000000000000000000000000000000000000000000000000008152600401610f5990612154565b60405180910390fd5b6002600083815260200190815260200160002060030160008154809291906001019190505550600160008083815260200190815260200160002060020160156101000a81548160ff0219169083151502179055507f888af08f757422d6a506e900aa26d9b2bdb7566a2983214e29ebdfaf066205548383604051610fe7929190612390565b60405180910390a1505050565b600560009054906101000a900473ffffffffffffffffffffffffffffffffffffffff1673ffffffffffffffffffffffffffffffffffffffff163373ffffffffffffffffffffffffffffffffffffffff16141515611086576040517f08c379a000000000000000000000000000000000000000000000000000000000815260040161107d906121b4565b60405180910390fd5b6003600481905550565b6000602052806000526040600020600091509050806000018054600181600116156101000203166002900480601f01602080910402602001604051908101604052809291908181526020018280546001816001161561010002031660029004801561113c5780601f106111115761010080835404028352916020019161113c565b820191906000526020600020905b81548152906001019060200180831161111f57829003601f168201915b5050505050908060010154908060020160009054906101000a900473ffffffffffffffffffffffffffffffffffffffff16908060020160149054906101000a900460ff16908060020160159054906101000a900460ff16908060020160169054906101000a900460ff16905086565b600060026004541415156111f4576040517f08c379a00000000000000000000000000000000000000000000000000000000081526004016111eb90612234565b60405180910390fd5b6000339050600560009054906101000a900473ffffffffffffffffffffffffffffffffffffffff1673ffffffffffffffffffffffffffffffffffffffff168173ffffffffffffffffffffffffffffffffffffffff161415151561128c576040517f08c379a000000000000000000000000000000000000000000000000000000000815260040161128390612254565b60405180910390fd5b611295816117c7565b15156112d6576040517f08c379a00000000000000000000000000000000000000000000000000000000081526004016112cd90612134565b60405180910390fd5b6112df8361167e565b1515611320576040517f08c379a0000000000000000000000000000000000000000000000000000000008152600401611317906122d4565b60405180910390fd5b60016000815480929190600101919050555060c0604051908101604052808581526020018481526020018273ffffffffffffffffffffffffffffffffffffffff16815260200160001515815260200160001515815260200160011515815250600080600154815260200190815260200160002060008201518160000190805190602001906113af929190611902565b506020820151816001015560408201518160020160006101000a81548173ffffffffffffffffffffffffffffffffffffffff021916908373ffffffffffffffffffffffffffffffffffffffff16021790555060608201518160020160146101000a81548160ff02191690831515021790555060808201518160020160156101000a81548160ff02191690831515021790555060a08201518160020160166101000a81548160ff0219169083151502179055509050507f7e4422a4ddf8a88b4a912b15dfbe991da3282835439dc55dcce86d27457baaf78484836040516114979392919061208e565b60405180910390a15092915050565b600080600190505b60035481111515611673576060600260008381526020019081526020016000206002018054600181600116156101000203166002900480601f0160208091040260200160405190810160405280929190818152602001828054600181600116156101000203166002900480156115655780601f1061153a57610100808354040283529160200191611565565b820191906000526020600020905b81548152906001019060200180831161154857829003601f168201915b50505050509050836040516020018082805190602001908083835b6020831015156115a55780518252602082019150602081019050602083039250611580565b6001836020036101000a03801982511681845116808217855250505050505090500191505060405160208183030381529060405280519060200120816040516020018082805190602001908083835b60208310151561161957805182526020820191506020810190506020830392506115f4565b6001836020036101000a03801982511681845116808217855250505050505090500191505060405160208183030381529060405280519060200120141561166557600092505050611679565b5080806001019150506114ae565b50600190505b919050565b600080600190505b60015481111515611718576000806000838152602001908152602001600020600101549050836040516020018082815260200191505060405160208183030381529060405280519060200120816040516020018082815260200191505060405160208183030381529060405280519060200120141561170a5760009250505061171e565b508080600101915050611686565b50600190505b919050565b600080600190505b600154811115156117bc57600080600083815260200190815260200160002060010154905083604051602001808281526020019150506040516020818303038152906040528051906020012081604051602001808281526020019150506040516020818303038152906040528051906020012014156117ae5781925050506117c2565b50808060010191505061172b565b50600090505b919050565b600080600190505b600154811115156118f757600080600083815260200190815260200160002060020160009054906101000a900473ffffffffffffffffffffffffffffffffffffffff16905083604051602001808273ffffffffffffffffffffffffffffffffffffffff1673ffffffffffffffffffffffffffffffffffffffff166c010000000000000000000000000281526014019150506040516020818303038152906040528051906020012081604051602001808273ffffffffffffffffffffffffffffffffffffffff1673ffffffffffffffffffffffffffffffffffffffff166c010000000000000000000000000281526014019150506040516020818303038152906040528051906020012014156118e9576000925050506118fd565b5080806001019150506117cf565b50600190505b919050565b828054600181600116156101000203166002900490600052602060002090601f016020900481019282601f1061194357805160ff1916838001178555611971565b82800160010185558215611971579182015b82811115611970578251825591602001919060010190611955565b5b50905061197e9190611982565b5090565b6119a491905b808211156119a0576000816000905550600101611988565b5090565b90565b600082601f83011215156119ba57600080fd5b81356119cd6119c8826123e6565b6123b9565b915080825260208301602083018583830111156119e957600080fd5b6119f483828461247a565b50505092915050565b6000611a098235612470565b905092915050565b60008060408385031215611a2457600080fd5b600083013567ffffffffffffffff811115611a3e57600080fd5b611a4a858286016119a7565b925050602083013567ffffffffffffffff811115611a6757600080fd5b611a73858286016119a7565b9150509250929050565b60008060408385031215611a9057600080fd5b600083013567ffffffffffffffff811115611aaa57600080fd5b611ab6858286016119a7565b9250506020611ac7858286016119fd565b9150509250929050565b600060208284031215611ae357600080fd5b6000611af1848285016119fd565b91505092915050565b60008060408385031215611b0d57600080fd5b6000611b1b858286016119fd565b9250506020611b2c858286016119fd565b9150509250929050565b611b3f81612428565b82525050565b611b4e8161243a565b82525050565b6000611b5f8261241d565b808452611b73816020860160208601612489565b611b7c816124bc565b602085010191505092915050565b6000611b9582612412565b808452611ba9816020860160208601612489565b611bb2816124bc565b602085010191505092915050565b6000602a82527f54686973204163636f756e74204164647265737320697320616c72656164792060208301527f72656769737465726564000000000000000000000000000000000000000000006040830152606082019050919050565b6000601782527f596f75206861766520616c726561647920766f7465642e0000000000000000006020830152604082019050919050565b6000602182527f5468697320506172747920697320616c7265616479207265676973746572656460208301527f2e000000000000000000000000000000000000000000000000000000000000006040830152606082019050919050565b6000602c82527f506c6561736520766f746520776974682072656769737465726564204163636f60208301527f756e7420416464726573732e00000000000000000000000000000000000000006040830152606082019050919050565b6000603282527f596f7520646f6e7420686176652072696768747320746f20706572666f726d2060208301527f41444d494e206f7065726174696f6e73202100000000000000000000000000006040830152606082019050919050565b6000601982527f54686973206973206e6f7420566f74696e672050686173652e000000000000006020830152604082019050919050565b6000601f82527f596f7520617265206e6f74207265676973746572656420746f20766f74652e006020830152604082019050919050565b6000601e82527f596f7520617265206e6f7420617574686f72697a6520746f20766f74652e00006020830152604082019050919050565b6000601f82527f54686973206973206e6f7420526567697374726174696f6e2050686173652e006020830152604082019050919050565b6000602982527f596f752063616e6e6f7420757365206f776e6572206164647265737320746f2060208301527f72656769737465722e00000000000000000000000000000000000000000000006040830152606082019050919050565b6000602082527f5468697320766f746572204944206973206e6f7420726567697374657265642e6020830152604082019050919050565b6000603482527f417574686f72697a6174696f6e20697320616c6c6f77656420696e205265676960208301527f7374726174696f6e205068617365206f6e6c792e0000000000000000000000006040830152606082019050919050565b6000601f82527f43616e6469646174652073656c656374696f6e20697320696e76616c69642e006020830152604082019050919050565b6000602482527f5468697320566f74657220496420697320616c7265616479207265676973746560208301527f7265642e000000000000000000000000000000000000000000000000000000006040830152606082019050919050565b6000601982527f54686973206973206e6f7420526573756c742070686173652e000000000000006020830152604082019050919050565b61200c81612466565b82525050565b6000604082019050818103600083015261202c8185611b54565b905081810360208301526120408184611b54565b90509392505050565b600060608201905081810360008301526120638186611b54565b905081810360208301526120778185611b54565b90506120866040830184612003565b949350505050565b600060608201905081810360008301526120a88186611b54565b90506120b76020830185612003565b6120c46040830184611b36565b949350505050565b600060c08201905081810360008301526120e68189611b8a565b90506120f56020830188612003565b6121026040830187611b36565b61210f6060830186611b45565b61211c6080830185611b45565b61212960a0830184611b45565b979650505050505050565b6000602082019050818103600083015261214d81611bc0565b9050919050565b6000602082019050818103600083015261216d81611c1d565b9050919050565b6000602082019050818103600083015261218d81611c54565b9050919050565b600060208201905081810360008301526121ad81611cb1565b9050919050565b600060208201905081810360008301526121cd81611d0e565b9050919050565b600060208201905081810360008301526121ed81611d6b565b9050919050565b6000602082019050818103600083015261220d81611da2565b9050919050565b6000602082019050818103600083015261222d81611dd9565b9050919050565b6000602082019050818103600083015261224d81611e10565b9050919050565b6000602082019050818103600083015261226d81611e47565b9050919050565b6000602082019050818103600083015261228d81611ea4565b9050919050565b600060208201905081810360008301526122ad81611edb565b9050919050565b600060208201905081810360008301526122cd81611f38565b9050919050565b600060208201905081810360008301526122ed81611f6f565b9050919050565b6000602082019050818103600083015261230d81611fcc565b9050919050565b60006020820190506123296000830184612003565b92915050565b600060a0820190506123446000830188612003565b81810360208301526123568187611b8a565b9050818103604083015261236a8186611b8a565b90506123796060830185612003565b6123866080830184611b45565b9695505050505050565b60006040820190506123a56000830185612003565b6123b26020830184612003565b9392505050565b6000604051905081810181811067ffffffffffffffff821117156123dc57600080fd5b8060405250919050565b600067ffffffffffffffff8211156123fd57600080fd5b601f19601f8301169050602081019050919050565b600081519050919050565b600081519050919050565b600061243382612446565b9050919050565b60008115159050919050565b600073ffffffffffffffffffffffffffffffffffffffff82169050919050565b6000819050919050565b6000819050919050565b82818337600083830152505050565b60005b838110156124a757808201518184015260208101905061248c565b838111156124b6576000848401525b50505050565b6000601f19601f830116905091905056fea265627a7a7230582020841d128ec3ff3be5227f4f80a4321b9295c9b71e82cfac90cb0a5c483ce4c76c6578706572696d656e74616cf50037",
  "source": "pragma solidity >=0.4.22 <0.9.0;\r\npragma experimental ABIEncoderV2;\r\n\r\ncontract Election {\r\n    struct Voter {\r\n        string name;\r\n        uint256 voterId;\r\n        address accountAddress;\r\n        bool authorized;\r\n        bool voted;\r\n        bool exists;\r\n    }\r\n\r\n    struct Candidate {\r\n        uint256 id;\r\n        string name;\r\n        string party;\r\n        uint256 noOfVotes;\r\n        bool exists;\r\n    }\r\n\r\n    mapping(uint256 => Voter) public voters;\r\n    uint256 public voterCount = 0;\r\n\r\n    mapping(uint256 => Candidate) public candidates;\r\n    uint256 public candidateCount = 0;\r\n\r\n    uint256 public electionState;\r\n\r\n    address adminAddress;\r\n\r\n    constructor() public {\r\n        adminAddress = msg.sender;\r\n    }\r\n\r\n    modifier onlyOwner() {\r\n        require(\r\n            msg.sender == adminAddress,\r\n            \"You dont have rights to perform ADMIN operations !\"\r\n        );\r\n        _;\r\n    }\r\n\r\n    function startElection() public onlyOwner {\r\n        electionState = 1;\r\n    }\r\n\r\n    function startRegistartionPhase() public onlyOwner {\r\n        electionState = 2;\r\n    }\r\n\r\n    function startVotingPhase() public onlyOwner {\r\n        electionState = 3;\r\n    }\r\n\r\n    function showResultsPhase() public onlyOwner {\r\n        electionState = 4;\r\n    }\r\n\r\n    function endElection() public onlyOwner {\r\n        electionState = 0;\r\n    }\r\n\r\n    function registerVoter(string memory _name, uint256 _voterId)\r\n        public\r\n        returns (uint256)\r\n    {\r\n        require(electionState == 2, \"This is not Registration Phase.\");\r\n        address _accountAddress = msg.sender;\r\n        require(\r\n            _accountAddress != adminAddress,\r\n            \"You cannot use owner address to register.\"\r\n        );\r\n        require(\r\n            checkIfAddressExist(_accountAddress),\r\n            \"This Account Address is already registered\"\r\n        );\r\n        require(\r\n            checkIfVoterIdExist(_voterId),\r\n            \"This Voter Id is already registered.\"\r\n        );\r\n        voterCount++;\r\n        voters[voterCount] = Voter(\r\n            _name,\r\n            _voterId,\r\n            _accountAddress,\r\n            false,\r\n            false,\r\n            true\r\n        );\r\n        emit VoterCreated(_name, _voterId, _accountAddress);\r\n    }\r\n\r\n    function registerCandidate(string memory _name, string memory _party)\r\n        public\r\n        onlyOwner\r\n        returns (uint256)\r\n    {\r\n        require(electionState == 2, \"This is not Registration Phase.\");\r\n        require(checkIfPartyExist(_party), \"This Party is already registered.\");\r\n        candidateCount++;\r\n        candidates[candidateCount] = Candidate(\r\n            candidateCount,\r\n            _name,\r\n            _party,\r\n            0,\r\n            true\r\n        );\r\n        emit CandidateCreated(_name, _party);\r\n    }\r\n\r\n    function vote(uint256 _voterId, uint256 _candidateId) public {\r\n        require(electionState == 3, \"This is not Voting Phase.\");\r\n        require(\r\n            !checkIfVoterIdExist(_voterId),\r\n            \"You are not registered to vote.\"\r\n        );\r\n        require(\r\n            _candidateId > 0 && _candidateId <= candidateCount,\r\n            \"Candidate selection is invalid.\"\r\n        );\r\n        uint256 id = returnCount(_voterId);\r\n        require(\r\n            voters[id].accountAddress == msg.sender,\r\n            \"Please vote with registered Account Address.\"\r\n        );\r\n        require(voters[id].authorized, \"You are not authorize to vote.\");\r\n        require(!voters[id].voted, \"You have already voted.\");\r\n        candidates[_candidateId].noOfVotes++;\r\n        voters[id].voted = true;\r\n        emit VoterVoted(_voterId, _candidateId);\r\n    }\r\n\r\n    function authorizeVoter(uint256 _voterId) public onlyOwner {\r\n        require(\r\n            electionState == 2,\r\n            \"Authorization is allowed in Registration Phase only.\"\r\n        );\r\n        require(\r\n            !checkIfVoterIdExist(_voterId),\r\n            \"This voter ID is not registered.\"\r\n        );\r\n        uint256 id = returnCount(_voterId);\r\n        voters[id].authorized = true;\r\n    }\r\n\r\n    function returnCount(uint256 _inputVoterId) private returns (uint256) {\r\n        for (uint256 i = 1; i <= voterCount; i++) {\r\n            uint256 idVoter = voters[i].voterId;\r\n            if (\r\n                keccak256(abi.encodePacked(idVoter)) ==\r\n                keccak256(abi.encodePacked(_inputVoterId))\r\n            ) {\r\n                return i;\r\n                break;\r\n            }\r\n        }\r\n        return 0;\r\n    }\r\n\r\n    function checkIfVoterIdExist(uint256 _inputVoterId) private returns (bool) {\r\n        for (uint256 i = 1; i <= voterCount; i++) {\r\n            uint256 idVoter = voters[i].voterId;\r\n            if (\r\n                keccak256(abi.encodePacked(idVoter)) ==\r\n                keccak256(abi.encodePacked(_inputVoterId))\r\n            ) {\r\n                return false;\r\n                break;\r\n            }\r\n        }\r\n        return true;\r\n    }\r\n\r\n    function checkIfAddressExist(address _inputAccountAddress)\r\n        private\r\n        returns (bool)\r\n    {\r\n        for (uint256 i = 1; i <= voterCount; i++) {\r\n            address addressAccount = voters[i].accountAddress;\r\n            if (\r\n                keccak256(abi.encodePacked(addressAccount)) ==\r\n                keccak256(abi.encodePacked(_inputAccountAddress))\r\n            ) {\r\n                return false;\r\n                break;\r\n            }\r\n        }\r\n        return true;\r\n    }\r\n\r\n    function checkIfPartyExist(string memory _inputParty)\r\n        private\r\n        returns (bool)\r\n    {\r\n        for (uint256 i = 1; i <= candidateCount; i++) {\r\n            string memory partyName = candidates[i].party;\r\n            if (\r\n                keccak256(abi.encodePacked(partyName)) ==\r\n                keccak256(abi.encodePacked(_inputParty))\r\n            ) {\r\n                return false;\r\n                break;\r\n            }\r\n        }\r\n        return true;\r\n    }\r\n\r\n    function winnerOfElection()\r\n        public\r\n        view\r\n        returns (\r\n            string memory winnerCandidteName,\r\n            string memory winnerPartyName,\r\n            uint256 voteCount\r\n        )\r\n    {\r\n        uint256 winingVoteCount = 0;\r\n        require(electionState == 4, \"This is not Result phase.\");\r\n        for (uint256 i = 1; i < candidateCount + 1; i++) {\r\n            if (candidates[i].noOfVotes > winingVoteCount) {\r\n                winingVoteCount = candidates[i].noOfVotes;\r\n                uint256 winnerID = i;\r\n                winnerCandidteName = candidates[winnerID].name;\r\n                winnerPartyName = candidates[winnerID].party;\r\n                voteCount = candidates[winnerID].noOfVotes;\r\n            }\r\n        }\r\n    }\r\n\r\n    event VoterCreated(string name, uint256 voterId, address accountAddress);\r\n    event CandidateCreated(string name, string party);\r\n    event VoterVoted(uint256 voterId, uint256 candidateId);\r\n    event WinnerAnnounced();\r\n}\r\n",
  "sourcePath": "C:/Users/harshad/Documents/Decentralized-Voting-Management-System/contracts/Election.sol",
  "compiler": {
    "name": "solc",
    "version": "0.5.0+commit.1d4f565a.Emscripten.clang"
  },
  "schemaVersion": "3.0.1",
  "updatedAt": "2022-04-08T11:08:44.029Z",
  "devdoc": {
    "methods": {}
  },
  "userdoc": {
    "methods": {}
  }
}