{
  "contractName": "Election",
  "abi": [
    {
      "constant": true,
      "inputs": [],
      "name": "electionState",
      "outputs": [
        {
          "name": "",
          "type": "uint256"
        }
      ],
      "payable": false,
      "stateMutability": "view",
      "type": "function",
      "signature": "0x2280043d"
    },
    {
      "constant": true,
      "inputs": [
        {
          "name": "",
          "type": "uint256"
        }
      ],
      "name": "candidates",
      "outputs": [
        {
          "name": "id",
          "type": "uint256"
        },
        {
          "name": "name",
          "type": "string"
        },
        {
          "name": "party",
          "type": "string"
        },
        {
          "name": "noOfVotes",
          "type": "uint256"
        },
        {
          "name": "exists",
          "type": "bool"
        }
      ],
      "payable": false,
      "stateMutability": "view",
      "type": "function",
      "signature": "0x3477ee2e"
    },
    {
      "constant": true,
      "inputs": [],
      "name": "voterCount",
      "outputs": [
        {
          "name": "",
          "type": "uint256"
        }
      ],
      "payable": false,
      "stateMutability": "view",
      "type": "function",
      "signature": "0x42169e48"
    },
    {
      "constant": true,
      "inputs": [],
      "name": "candidateCount",
      "outputs": [
        {
          "name": "",
          "type": "uint256"
        }
      ],
      "payable": false,
      "stateMutability": "view",
      "type": "function",
      "signature": "0xa9a981a3"
    },
    {
      "constant": true,
      "inputs": [
        {
          "name": "",
          "type": "uint256"
        }
      ],
      "name": "voters",
      "outputs": [
        {
          "name": "name",
          "type": "string"
        },
        {
          "name": "voterId",
          "type": "uint256"
        },
        {
          "name": "accountAddress",
          "type": "address"
        },
        {
          "name": "authorized",
          "type": "bool"
        },
        {
          "name": "voted",
          "type": "bool"
        },
        {
          "name": "exists",
          "type": "bool"
        }
      ],
      "payable": false,
      "stateMutability": "view",
      "type": "function",
      "signature": "0xda58c7d9"
    },
    {
      "inputs": [],
      "payable": false,
      "stateMutability": "nonpayable",
      "type": "constructor",
      "signature": "constructor"
    },
    {
      "anonymous": false,
      "inputs": [
        {
          "indexed": false,
          "name": "name",
          "type": "string"
        },
        {
          "indexed": false,
          "name": "voterId",
          "type": "uint256"
        },
        {
          "indexed": false,
          "name": "accountAddress",
          "type": "address"
        }
      ],
      "name": "VoterCreated",
      "type": "event",
      "signature": "0x7e4422a4ddf8a88b4a912b15dfbe991da3282835439dc55dcce86d27457baaf7"
    },
    {
      "anonymous": false,
      "inputs": [
        {
          "indexed": false,
          "name": "name",
          "type": "string"
        },
        {
          "indexed": false,
          "name": "party",
          "type": "string"
        }
      ],
      "name": "CandidateCreated",
      "type": "event",
      "signature": "0x2e54601340a570f400320f889c40c79d337a860379cf63e97d44c6386230b341"
    },
    {
      "anonymous": false,
      "inputs": [
        {
          "indexed": false,
          "name": "voterId",
          "type": "uint256"
        },
        {
          "indexed": false,
          "name": "candidateId",
          "type": "uint256"
        }
      ],
      "name": "VoterVoted",
      "type": "event",
      "signature": "0x888af08f757422d6a506e900aa26d9b2bdb7566a2983214e29ebdfaf06620554"
    },
    {
      "constant": false,
      "inputs": [
        {
          "name": "_name",
          "type": "string"
        },
        {
          "name": "_voterId",
          "type": "uint256"
        }
      ],
      "name": "registerVoter",
      "outputs": [
        {
          "name": "",
          "type": "uint256"
        }
      ],
      "payable": false,
      "stateMutability": "nonpayable",
      "type": "function",
      "signature": "0xe661ea5f"
    },
    {
      "constant": false,
      "inputs": [
        {
          "name": "_name",
          "type": "string"
        },
        {
          "name": "_party",
          "type": "string"
        }
      ],
      "name": "registerCandidate",
      "outputs": [
        {
          "name": "",
          "type": "uint256"
        }
      ],
      "payable": false,
      "stateMutability": "nonpayable",
      "type": "function",
      "signature": "0x0dbce4dd"
    },
    {
      "constant": false,
      "inputs": [
        {
          "name": "_voterId",
          "type": "uint256"
        },
        {
          "name": "_candidateId",
          "type": "uint256"
        }
      ],
      "name": "vote",
      "outputs": [],
      "payable": false,
      "stateMutability": "nonpayable",
      "type": "function",
      "signature": "0xb384abef"
    },
    {
      "constant": false,
      "inputs": [
        {
          "name": "_voterId",
          "type": "uint256"
        }
      ],
      "name": "authorizeVoter",
      "outputs": [],
      "payable": false,
      "stateMutability": "nonpayable",
      "type": "function",
      "signature": "0x535c392f"
    }
  ],
  "bytecode": "0x60806040526000600155600060035534801561001a57600080fd5b5033600560006101000a81548173ffffffffffffffffffffffffffffffffffffffff021916908373ffffffffffffffffffffffffffffffffffffffff160217905550611c058061006b6000396000f3fe608060405260043610610099576000357c0100000000000000000000000000000000000000000000000000000000900463ffffffff1680630dbce4dd1461009e5780632280043d146100db5780633477ee2e1461010657806342169e4814610147578063535c392f14610172578063a9a981a31461019b578063b384abef146101c6578063da58c7d9146101ef578063e661ea5f14610231575b600080fd5b3480156100aa57600080fd5b506100c560048036036100c091908101906112d6565b61026e565b6040516100d29190611a12565b60405180910390f35b3480156100e757600080fd5b506100f0610451565b6040516100fd9190611a12565b60405180910390f35b34801561011257600080fd5b5061012d60048036036101289190810190611396565b610457565b60405161013e959493929190611a2d565b60405180910390f35b34801561015357600080fd5b5061015c6105ca565b6040516101699190611a12565b60405180910390f35b34801561017e57600080fd5b5061019960048036036101949190810190611396565b6105d0565b005b3480156101a757600080fd5b506101b06106ec565b6040516101bd9190611a12565b60405180910390f35b3480156101d257600080fd5b506101ed60048036036101e891908101906113bf565b6106f2565b005b3480156101fb57600080fd5b5061021660048036036102119190810190611396565b61099d565b6040516102289695949392919061184a565b60405180910390f35b34801561023d57600080fd5b5061025860048036036102539190810190611342565b610ab8565b6040516102659190611a12565b60405180910390f35b6000600560009054906101000a900473ffffffffffffffffffffffffffffffffffffffff1673ffffffffffffffffffffffffffffffffffffffff163373ffffffffffffffffffffffffffffffffffffffff16141515610302576040517f08c379a00000000000000000000000000000000000000000000000000000000081526004016102f990611932565b60405180910390fd5b61030b82610d6b565b151561034c576040517f08c379a0000000000000000000000000000000000000000000000000000000008152600401610343906118f2565b60405180910390fd5b60036000815480929190600101919050555060a060405190810160405280600354815260200184815260200183815260200160008152602001600115158152506002600060035481526020019081526020016000206000820151816000015560208201518160010190805190602001906103c79291906111c7565b5060408201518160020190805190602001906103e49291906111c7565b506060820151816003015560808201518160040160006101000a81548160ff0219169083151502179055509050507f2e54601340a570f400320f889c40c79d337a860379cf63e97d44c6386230b34183836040516104439291906117d5565b60405180910390a192915050565b60045481565b6002602052806000526040600020600091509050806000015490806001018054600181600116156101000203166002900480601f0160208091040260200160405190810160405280929190818152602001828054600181600116156101000203166002900480156105095780601f106104de57610100808354040283529160200191610509565b820191906000526020600020905b8154815290600101906020018083116104ec57829003601f168201915b505050505090806002018054600181600116156101000203166002900480601f0160208091040260200160405190810160405280929190818152602001828054600181600116156101000203166002900480156105a75780601f1061057c576101008083540402835291602001916105a7565b820191906000526020600020905b81548152906001019060200180831161058a57829003601f168201915b5050505050908060030154908060040160009054906101000a900460ff16905085565b60015481565b600560009054906101000a900473ffffffffffffffffffffffffffffffffffffffff1673ffffffffffffffffffffffffffffffffffffffff163373ffffffffffffffffffffffffffffffffffffffff16141515610662576040517f08c379a000000000000000000000000000000000000000000000000000000000815260040161065990611932565b60405180910390fd5b61066b81610f43565b1515156106ad576040517f08c379a00000000000000000000000000000000000000000000000000000000081526004016106a4906119b2565b60405180910390fd5b60006106b882610fe8565b9050600160008083815260200190815260200160002060020160146101000a81548160ff0219169083151502179055505050565b60035481565b6106fb82610f43565b15151561073d576040517f08c379a000000000000000000000000000000000000000000000000000000000815260040161073490611952565b60405180910390fd5b60008111801561074f57506003548111155b1515610790576040517f08c379a0000000000000000000000000000000000000000000000000000000008152600401610787906119d2565b60405180910390fd5b600061079b83610fe8565b90503373ffffffffffffffffffffffffffffffffffffffff1660008083815260200190815260200160002060020160009054906101000a900473ffffffffffffffffffffffffffffffffffffffff1673ffffffffffffffffffffffffffffffffffffffff16141515610842576040517f08c379a000000000000000000000000000000000000000000000000000000000815260040161083990611912565b60405180910390fd5b60008082815260200190815260200160002060020160149054906101000a900460ff1615156108a6576040517f08c379a000000000000000000000000000000000000000000000000000000000815260040161089d90611972565b60405180910390fd5b60008082815260200190815260200160002060020160159054906101000a900460ff1615151561090b576040517f08c379a0000000000000000000000000000000000000000000000000000000008152600401610902906118d2565b60405180910390fd5b6002600083815260200190815260200160002060030160008154809291906001019190505550600160008083815260200190815260200160002060020160156101000a81548160ff0219169083151502179055507f888af08f757422d6a506e900aa26d9b2bdb7566a2983214e29ebdfaf066205548383604051610990929190611a8e565b60405180910390a1505050565b6000602052806000526040600020600091509050806000018054600181600116156101000203166002900480601f016020809104026020016040519081016040528092919081815260200182805460018160011615610100020316600290048015610a495780601f10610a1e57610100808354040283529160200191610a49565b820191906000526020600020905b815481529060010190602001808311610a2c57829003601f168201915b5050505050908060010154908060020160009054906101000a900473ffffffffffffffffffffffffffffffffffffffff16908060020160149054906101000a900460ff16908060020160159054906101000a900460ff16908060020160169054906101000a900460ff16905086565b600080339050600560009054906101000a900473ffffffffffffffffffffffffffffffffffffffff1673ffffffffffffffffffffffffffffffffffffffff168173ffffffffffffffffffffffffffffffffffffffff1614151515610b51576040517f08c379a0000000000000000000000000000000000000000000000000000000008152600401610b4890611992565b60405180910390fd5b610b5a8161108c565b1515610b9b576040517f08c379a0000000000000000000000000000000000000000000000000000000008152600401610b92906118b2565b60405180910390fd5b610ba483610f43565b1515610be5576040517f08c379a0000000000000000000000000000000000000000000000000000000008152600401610bdc906119f2565b60405180910390fd5b60016000815480929190600101919050555060c0604051908101604052808581526020018481526020018273ffffffffffffffffffffffffffffffffffffffff1681526020016000151581526020016000151581526020016001151581525060008060015481526020019081526020016000206000820151816000019080519060200190610c749291906111c7565b506020820151816001015560408201518160020160006101000a81548173ffffffffffffffffffffffffffffffffffffffff021916908373ffffffffffffffffffffffffffffffffffffffff16021790555060608201518160020160146101000a81548160ff02191690831515021790555060808201518160020160156101000a81548160ff02191690831515021790555060a08201518160020160166101000a81548160ff0219169083151502179055509050507f7e4422a4ddf8a88b4a912b15dfbe991da3282835439dc55dcce86d27457baaf7848483604051610d5c9392919061180c565b60405180910390a15092915050565b600080600190505b60035481111515610f38576060600260008381526020019081526020016000206002018054600181600116156101000203166002900480601f016020809104026020016040519081016040528092919081815260200182805460018160011615610100020316600290048015610e2a5780601f10610dff57610100808354040283529160200191610e2a565b820191906000526020600020905b815481529060010190602001808311610e0d57829003601f168201915b50505050509050836040516020018082805190602001908083835b602083101515610e6a5780518252602082019150602081019050602083039250610e45565b6001836020036101000a03801982511681845116808217855250505050505090500191505060405160208183030381529060405280519060200120816040516020018082805190602001908083835b602083101515610ede5780518252602082019150602081019050602083039250610eb9565b6001836020036101000a038019825116818451168082178552505050505050905001915050604051602081830303815290604052805190602001201415610f2a57600092505050610f3e565b508080600101915050610d73565b50600190505b919050565b600080600190505b60015481111515610fdd5760008060008381526020019081526020016000206001015490508360405160200180828152602001915050604051602081830303815290604052805190602001208160405160200180828152602001915050604051602081830303815290604052805190602001201415610fcf57600092505050610fe3565b508080600101915050610f4b565b50600190505b919050565b600080600190505b600154811115156110815760008060008381526020019081526020016000206001015490508360405160200180828152602001915050604051602081830303815290604052805190602001208160405160200180828152602001915050604051602081830303815290604052805190602001201415611073578192505050611087565b508080600101915050610ff0565b50600090505b919050565b600080600190505b600154811115156111bc57600080600083815260200190815260200160002060020160009054906101000a900473ffffffffffffffffffffffffffffffffffffffff16905083604051602001808273ffffffffffffffffffffffffffffffffffffffff1673ffffffffffffffffffffffffffffffffffffffff166c010000000000000000000000000281526014019150506040516020818303038152906040528051906020012081604051602001808273ffffffffffffffffffffffffffffffffffffffff1673ffffffffffffffffffffffffffffffffffffffff166c010000000000000000000000000281526014019150506040516020818303038152906040528051906020012014156111ae576000925050506111c2565b508080600101915050611094565b50600190505b919050565b828054600181600116156101000203166002900490600052602060002090601f016020900481019282601f1061120857805160ff1916838001178555611236565b82800160010185558215611236579182015b8281111561123557825182559160200191906001019061121a565b5b5090506112439190611247565b5090565b61126991905b8082111561126557600081600090555060010161124d565b5090565b90565b600082601f830112151561127f57600080fd5b813561129261128d82611ae4565b611ab7565b915080825260208301602083018583830111156112ae57600080fd5b6112b9838284611b78565b50505092915050565b60006112ce8235611b6e565b905092915050565b600080604083850312156112e957600080fd5b600083013567ffffffffffffffff81111561130357600080fd5b61130f8582860161126c565b925050602083013567ffffffffffffffff81111561132c57600080fd5b6113388582860161126c565b9150509250929050565b6000806040838503121561135557600080fd5b600083013567ffffffffffffffff81111561136f57600080fd5b61137b8582860161126c565b925050602061138c858286016112c2565b9150509250929050565b6000602082840312156113a857600080fd5b60006113b6848285016112c2565b91505092915050565b600080604083850312156113d257600080fd5b60006113e0858286016112c2565b92505060206113f1858286016112c2565b9150509250929050565b61140481611b26565b82525050565b61141381611b38565b82525050565b600061142482611b1b565b808452611438816020860160208601611b87565b61144181611bba565b602085010191505092915050565b600061145a82611b10565b80845261146e816020860160208601611b87565b61147781611bba565b602085010191505092915050565b6000602a82527f54686973204163636f756e74204164647265737320697320616c72656164792060208301527f72656769737465726564000000000000000000000000000000000000000000006040830152606082019050919050565b6000601782527f596f75206861766520616c726561647920766f7465642e0000000000000000006020830152604082019050919050565b6000602182527f5468697320506172747920697320616c7265616479207265676973746572656460208301527f2e000000000000000000000000000000000000000000000000000000000000006040830152606082019050919050565b6000602c82527f506c6561736520766f746520776974682072656769737465726564204163636f60208301527f756e7420416464726573732e00000000000000000000000000000000000000006040830152606082019050919050565b6000603282527f596f7520646f6e7420686176652072696768747320746f20706572666f726d2060208301527f41444d494e206f7065726174696f6e73202100000000000000000000000000006040830152606082019050919050565b6000601f82527f596f7520617265206e6f74207265676973746572656420746f20766f74652e006020830152604082019050919050565b6000601e82527f596f7520617265206e6f7420617574686f72697a6520746f20766f74652e00006020830152604082019050919050565b6000602982527f596f752063616e6e6f7420757365206f776e6572206164647265737320746f2060208301527f72656769737465722e00000000000000000000000000000000000000000000006040830152606082019050919050565b6000602082527f5468697320766f746572204944206973206e6f7420726567697374657265642e6020830152604082019050919050565b6000601f82527f43616e6469646174652073656c656374696f6e20697320696e76616c69642e006020830152604082019050919050565b6000602482527f5468697320566f74657220496420697320616c7265616479207265676973746560208301527f7265642e000000000000000000000000000000000000000000000000000000006040830152606082019050919050565b6117cf81611b64565b82525050565b600060408201905081810360008301526117ef8185611419565b905081810360208301526118038184611419565b90509392505050565b600060608201905081810360008301526118268186611419565b905061183560208301856117c6565b61184260408301846113fb565b949350505050565b600060c0820190508181036000830152611864818961144f565b905061187360208301886117c6565b61188060408301876113fb565b61188d606083018661140a565b61189a608083018561140a565b6118a760a083018461140a565b979650505050505050565b600060208201905081810360008301526118cb81611485565b9050919050565b600060208201905081810360008301526118eb816114e2565b9050919050565b6000602082019050818103600083015261190b81611519565b9050919050565b6000602082019050818103600083015261192b81611576565b9050919050565b6000602082019050818103600083015261194b816115d3565b9050919050565b6000602082019050818103600083015261196b81611630565b9050919050565b6000602082019050818103600083015261198b81611667565b9050919050565b600060208201905081810360008301526119ab8161169e565b9050919050565b600060208201905081810360008301526119cb816116fb565b9050919050565b600060208201905081810360008301526119eb81611732565b9050919050565b60006020820190508181036000830152611a0b81611769565b9050919050565b6000602082019050611a2760008301846117c6565b92915050565b600060a082019050611a4260008301886117c6565b8181036020830152611a54818761144f565b90508181036040830152611a68818661144f565b9050611a7760608301856117c6565b611a84608083018461140a565b9695505050505050565b6000604082019050611aa360008301856117c6565b611ab060208301846117c6565b9392505050565b6000604051905081810181811067ffffffffffffffff82111715611ada57600080fd5b8060405250919050565b600067ffffffffffffffff821115611afb57600080fd5b601f19601f8301169050602081019050919050565b600081519050919050565b600081519050919050565b6000611b3182611b44565b9050919050565b60008115159050919050565b600073ffffffffffffffffffffffffffffffffffffffff82169050919050565b6000819050919050565b6000819050919050565b82818337600083830152505050565b60005b83811015611ba5578082015181840152602081019050611b8a565b83811115611bb4576000848401525b50505050565b6000601f19601f830116905091905056fea265627a7a72305820212f690bba3df139306465a7efbf8a37cc3e803984531642fd6453ea578f67a36c6578706572696d656e74616cf50037",
  "source": "pragma solidity >=0.4.22 <0.9.0;\r\npragma experimental ABIEncoderV2;\r\n\r\ncontract Election {\r\n    struct Voter {\r\n        string name;\r\n        uint256 voterId;\r\n        address accountAddress;\r\n        bool authorized;\r\n        bool voted;\r\n        bool exists;\r\n    }\r\n\r\n    struct Candidate {\r\n        uint256 id;\r\n        string name;\r\n        string party;\r\n        uint256 noOfVotes;\r\n        bool exists;\r\n    }\r\n\r\n    mapping(uint256 => Voter) public voters;\r\n    uint256 public voterCount = 0;\r\n\r\n    mapping(uint256 => Candidate) public candidates;\r\n    uint256 public candidateCount = 0;\r\n\r\n    uint256 public electionState;\r\n\r\n    address adminAddress;\r\n\r\n    constructor() public {\r\n        adminAddress = msg.sender;\r\n    }\r\n\r\n    modifier onlyOwner() {\r\n        require(\r\n            msg.sender == adminAddress,\r\n            \"You dont have rights to perform ADMIN operations !\"\r\n        );\r\n        _;\r\n    }\r\n\r\n    function registerVoter(string memory _name, uint256 _voterId)\r\n        public\r\n        returns (uint256)\r\n    {\r\n        address _accountAddress = msg.sender;\r\n        require(\r\n            _accountAddress != adminAddress,\r\n            \"You cannot use owner address to register.\"\r\n        );\r\n        require(\r\n            checkIfAddressExist(_accountAddress),\r\n            \"This Account Address is already registered\"\r\n        );\r\n        require(\r\n            checkIfVoterIdExist(_voterId),\r\n            \"This Voter Id is already registered.\"\r\n        );\r\n        voterCount++;\r\n        voters[voterCount] = Voter(\r\n            _name,\r\n            _voterId,\r\n            _accountAddress,\r\n            false,\r\n            false,\r\n            true\r\n        );\r\n        emit VoterCreated(_name, _voterId, _accountAddress);\r\n    }\r\n\r\n    function registerCandidate(string memory _name, string memory _party)\r\n        public\r\n        onlyOwner\r\n        returns (uint256)\r\n    {\r\n        require(checkIfPartyExist(_party), \"This Party is already registered.\");\r\n        candidateCount++;\r\n        candidates[candidateCount] = Candidate(\r\n            candidateCount,\r\n            _name,\r\n            _party,\r\n            0,\r\n            true\r\n        );\r\n        emit CandidateCreated(_name, _party);\r\n    }\r\n\r\n    function vote(uint256 _voterId, uint256 _candidateId) public {\r\n        require(\r\n            !checkIfVoterIdExist(_voterId),\r\n            \"You are not registered to vote.\"\r\n        );\r\n        require(\r\n            _candidateId > 0 && _candidateId <= candidateCount,\r\n            \"Candidate selection is invalid.\"\r\n        );\r\n        uint256 id = returnCount(_voterId);\r\n        require(\r\n            voters[id].accountAddress == msg.sender,\r\n            \"Please vote with registered Account Address.\"\r\n        );\r\n        require(voters[id].authorized, \"You are not authorize to vote.\");\r\n        require(!voters[id].voted, \"You have already voted.\");\r\n        candidates[_candidateId].noOfVotes++;\r\n        voters[id].voted = true;\r\n        emit VoterVoted(_voterId, _candidateId);\r\n    }\r\n\r\n    function authorizeVoter(uint256 _voterId) public onlyOwner {\r\n        require(\r\n            !checkIfVoterIdExist(_voterId),\r\n            \"This voter ID is not registered.\"\r\n        );\r\n        uint256 id = returnCount(_voterId);\r\n        voters[id].authorized = true;\r\n    }\r\n\r\n    function returnCount(uint256 _inputVoterId) private returns (uint256) {\r\n        for (uint256 i = 1; i <= voterCount; i++) {\r\n            uint256 idVoter = voters[i].voterId;\r\n            if (\r\n                keccak256(abi.encodePacked(idVoter)) ==\r\n                keccak256(abi.encodePacked(_inputVoterId))\r\n            ) {\r\n                return i;\r\n                break;\r\n            }\r\n        }\r\n        return 0;\r\n    }\r\n\r\n    function checkIfVoterIdExist(uint256 _inputVoterId) private returns (bool) {\r\n        for (uint256 i = 1; i <= voterCount; i++) {\r\n            uint256 idVoter = voters[i].voterId;\r\n            if (\r\n                keccak256(abi.encodePacked(idVoter)) ==\r\n                keccak256(abi.encodePacked(_inputVoterId))\r\n            ) {\r\n                return false;\r\n                break;\r\n            }\r\n        }\r\n        return true;\r\n    }\r\n\r\n    function checkIfAddressExist(address _inputAccountAddress)\r\n        private\r\n        returns (bool)\r\n    {\r\n        for (uint256 i = 1; i <= voterCount; i++) {\r\n            address addressAccount = voters[i].accountAddress;\r\n            if (\r\n                keccak256(abi.encodePacked(addressAccount)) ==\r\n                keccak256(abi.encodePacked(_inputAccountAddress))\r\n            ) {\r\n                return false;\r\n                break;\r\n            }\r\n        }\r\n        return true;\r\n    }\r\n\r\n    function checkIfPartyExist(string memory _inputParty)\r\n        private\r\n        returns (bool)\r\n    {\r\n        for (uint256 i = 1; i <= candidateCount; i++) {\r\n            string memory partyName = candidates[i].party;\r\n            if (\r\n                keccak256(abi.encodePacked(partyName)) ==\r\n                keccak256(abi.encodePacked(_inputParty))\r\n            ) {\r\n                return false;\r\n                break;\r\n            }\r\n        }\r\n        return true;\r\n    }\r\n\r\n    event VoterCreated(string name, uint256 voterId, address accountAddress);\r\n    event CandidateCreated(string name, string party);\r\n    event VoterVoted(uint256 voterId, uint256 candidateId);\r\n}\r\n",
  "sourcePath": "C:/Users/harshad/Documents/Decentralized-Voting-Management-System/contracts/Election.sol",
  "compiler": {
    "name": "solc",
    "version": "0.5.0+commit.1d4f565a.Emscripten.clang"
  },
  "schemaVersion": "3.0.1",
  "updatedAt": "2022-03-26T15:13:35.391Z",
  "devdoc": {
    "methods": {}
  },
  "userdoc": {
    "methods": {}
  }
}