{
  "contractName": "Election",
  "abi": [
    {
      "constant": true,
      "inputs": [],
      "name": "electionState",
      "outputs": [
        {
          "name": "",
          "type": "uint256"
        }
      ],
      "payable": false,
      "stateMutability": "view",
      "type": "function",
      "signature": "0x2280043d"
    },
    {
      "constant": true,
      "inputs": [
        {
          "name": "",
          "type": "uint256"
        }
      ],
      "name": "candidates",
      "outputs": [
        {
          "name": "name",
          "type": "string"
        },
        {
          "name": "party",
          "type": "string"
        },
        {
          "name": "noOfVotes",
          "type": "uint256"
        },
        {
          "name": "exists",
          "type": "bool"
        }
      ],
      "payable": false,
      "stateMutability": "view",
      "type": "function",
      "signature": "0x3477ee2e"
    },
    {
      "constant": true,
      "inputs": [],
      "name": "voterCount",
      "outputs": [
        {
          "name": "",
          "type": "uint256"
        }
      ],
      "payable": false,
      "stateMutability": "view",
      "type": "function",
      "signature": "0x42169e48"
    },
    {
      "constant": true,
      "inputs": [],
      "name": "candidateCount",
      "outputs": [
        {
          "name": "",
          "type": "uint256"
        }
      ],
      "payable": false,
      "stateMutability": "view",
      "type": "function",
      "signature": "0xa9a981a3"
    },
    {
      "constant": true,
      "inputs": [
        {
          "name": "",
          "type": "uint256"
        }
      ],
      "name": "voters",
      "outputs": [
        {
          "name": "name",
          "type": "string"
        },
        {
          "name": "voterId",
          "type": "uint256"
        },
        {
          "name": "accountAddress",
          "type": "address"
        },
        {
          "name": "voted",
          "type": "bool"
        },
        {
          "name": "exists",
          "type": "bool"
        }
      ],
      "payable": false,
      "stateMutability": "view",
      "type": "function",
      "signature": "0xda58c7d9"
    },
    {
      "inputs": [],
      "payable": false,
      "stateMutability": "nonpayable",
      "type": "constructor",
      "signature": "constructor"
    },
    {
      "anonymous": false,
      "inputs": [
        {
          "indexed": false,
          "name": "name",
          "type": "string"
        },
        {
          "indexed": false,
          "name": "voterId",
          "type": "uint256"
        },
        {
          "indexed": false,
          "name": "accountAddress",
          "type": "address"
        }
      ],
      "name": "VoterCreated",
      "type": "event",
      "signature": "0x7e4422a4ddf8a88b4a912b15dfbe991da3282835439dc55dcce86d27457baaf7"
    },
    {
      "anonymous": false,
      "inputs": [
        {
          "indexed": false,
          "name": "name",
          "type": "string"
        },
        {
          "indexed": false,
          "name": "party",
          "type": "string"
        }
      ],
      "name": "CandidateCreated",
      "type": "event",
      "signature": "0x2e54601340a570f400320f889c40c79d337a860379cf63e97d44c6386230b341"
    },
    {
      "anonymous": false,
      "inputs": [
        {
          "indexed": false,
          "name": "voterId",
          "type": "uint256"
        },
        {
          "indexed": false,
          "name": "candidateId",
          "type": "uint256"
        }
      ],
      "name": "VoterVoted",
      "type": "event",
      "signature": "0x888af08f757422d6a506e900aa26d9b2bdb7566a2983214e29ebdfaf06620554"
    },
    {
      "constant": false,
      "inputs": [
        {
          "name": "_name",
          "type": "string"
        },
        {
          "name": "_voterId",
          "type": "uint256"
        }
      ],
      "name": "registerVoter",
      "outputs": [
        {
          "name": "",
          "type": "uint256"
        }
      ],
      "payable": false,
      "stateMutability": "nonpayable",
      "type": "function",
      "signature": "0xe661ea5f"
    },
    {
      "constant": false,
      "inputs": [
        {
          "name": "_name",
          "type": "string"
        },
        {
          "name": "_party",
          "type": "string"
        }
      ],
      "name": "registerCandidate",
      "outputs": [
        {
          "name": "",
          "type": "uint256"
        }
      ],
      "payable": false,
      "stateMutability": "nonpayable",
      "type": "function",
      "signature": "0x0dbce4dd"
    },
    {
      "constant": false,
      "inputs": [
        {
          "name": "_voterId",
          "type": "uint256"
        },
        {
          "name": "_candidateId",
          "type": "uint256"
        }
      ],
      "name": "vote",
      "outputs": [],
      "payable": false,
      "stateMutability": "nonpayable",
      "type": "function",
      "signature": "0xb384abef"
    }
  ],
  "bytecode": "0x60806040526000600155600060035534801561001a57600080fd5b5033600560006101000a81548173ffffffffffffffffffffffffffffffffffffffff021916908373ffffffffffffffffffffffffffffffffffffffff1602179055506119318061006b6000396000f3fe60806040526004361061008e576000357c0100000000000000000000000000000000000000000000000000000000900463ffffffff1680630dbce4dd146100935780632280043d146100d05780633477ee2e146100fb57806342169e481461013b578063a9a981a314610166578063b384abef14610191578063da58c7d9146101ba578063e661ea5f146101fb575b600080fd5b34801561009f57600080fd5b506100ba60048036036100b591908101906110cc565b610238565b6040516100c7919061179f565b60405180910390f35b3480156100dc57600080fd5b506100e5610409565b6040516100f2919061179f565b60405180910390f35b34801561010757600080fd5b50610122600480360361011d919081019061118c565b61040f565b60405161013294939291906115d2565b60405180910390f35b34801561014757600080fd5b5061015061057c565b60405161015d919061179f565b60405180910390f35b34801561017257600080fd5b5061017b610582565b604051610188919061179f565b60405180910390f35b34801561019d57600080fd5b506101b860048036036101b391908101906111b5565b610588565b005b3480156101c657600080fd5b506101e160048036036101dc919081019061118c565b6107cf565b6040516101f2959493929190611625565b60405180910390f35b34801561020757600080fd5b50610222600480360361021d9190810190611138565b6108d7565b60405161022f919061179f565b60405180910390f35b6000600560009054906101000a900473ffffffffffffffffffffffffffffffffffffffff1673ffffffffffffffffffffffffffffffffffffffff163373ffffffffffffffffffffffffffffffffffffffff161415156102cc576040517f08c379a00000000000000000000000000000000000000000000000000000000081526004016102c3906116ff565b60405180910390fd5b6102d582610b61565b1515610316576040517f08c379a000000000000000000000000000000000000000000000000000000000815260040161030d906116bf565b60405180910390fd5b6003600081548092919060010191905055506080604051908101604052808481526020018381526020016000815260200160011515815250600260006003548152602001908152602001600020600082015181600001908051906020019061037f929190610fbd565b50602082015181600101908051906020019061039c929190610fbd565b506040820151816002015560608201518160030160006101000a81548160ff0219169083151502179055509050507f2e54601340a570f400320f889c40c79d337a860379cf63e97d44c6386230b34183836040516103fb92919061155d565b60405180910390a192915050565b60045481565b6002602052806000526040600020600091509050806000018054600181600116156101000203166002900480601f0160208091040260200160405190810160405280929190818152602001828054600181600116156101000203166002900480156104bb5780601f10610490576101008083540402835291602001916104bb565b820191906000526020600020905b81548152906001019060200180831161049e57829003601f168201915b505050505090806001018054600181600116156101000203166002900480601f0160208091040260200160405190810160405280929190818152602001828054600181600116156101000203166002900480156105595780601f1061052e57610100808354040283529160200191610559565b820191906000526020600020905b81548152906001019060200180831161053c57829003601f168201915b5050505050908060020154908060030160009054906101000a900460ff16905084565b60015481565b60035481565b61059182610d39565b1515156105d3576040517f08c379a00000000000000000000000000000000000000000000000000000000081526004016105ca9061171f565b60405180910390fd5b6000811180156105e557506003548111155b1515610626576040517f08c379a000000000000000000000000000000000000000000000000000000000815260040161061d9061175f565b60405180910390fd5b600061063183610dde565b90503373ffffffffffffffffffffffffffffffffffffffff1660008083815260200190815260200160002060020160009054906101000a900473ffffffffffffffffffffffffffffffffffffffff1673ffffffffffffffffffffffffffffffffffffffff161415156106d8576040517f08c379a00000000000000000000000000000000000000000000000000000000081526004016106cf906116df565b60405180910390fd5b60008082815260200190815260200160002060020160149054906101000a900460ff1615151561073d576040517f08c379a00000000000000000000000000000000000000000000000000000000081526004016107349061169f565b60405180910390fd5b6002600083815260200190815260200160002060020160008154809291906001019190505550600160008083815260200190815260200160002060020160146101000a81548160ff0219169083151502179055507f888af08f757422d6a506e900aa26d9b2bdb7566a2983214e29ebdfaf0662055483836040516107c29291906117ba565b60405180910390a1505050565b6000602052806000526040600020600091509050806000018054600181600116156101000203166002900480601f01602080910402602001604051908101604052809291908181526020018280546001816001161561010002031660029004801561087b5780601f106108505761010080835404028352916020019161087b565b820191906000526020600020905b81548152906001019060200180831161085e57829003601f168201915b5050505050908060010154908060020160009054906101000a900473ffffffffffffffffffffffffffffffffffffffff16908060020160149054906101000a900460ff16908060020160159054906101000a900460ff16905085565b600080339050600560009054906101000a900473ffffffffffffffffffffffffffffffffffffffff1673ffffffffffffffffffffffffffffffffffffffff168173ffffffffffffffffffffffffffffffffffffffff1614151515610970576040517f08c379a00000000000000000000000000000000000000000000000000000000081526004016109679061173f565b60405180910390fd5b61097981610e82565b15156109ba576040517f08c379a00000000000000000000000000000000000000000000000000000000081526004016109b19061167f565b60405180910390fd5b6109c383610d39565b1515610a04576040517f08c379a00000000000000000000000000000000000000000000000000000000081526004016109fb9061177f565b60405180910390fd5b60016000815480929190600101919050555060a0604051908101604052808581526020018481526020018273ffffffffffffffffffffffffffffffffffffffff1681526020016000151581526020016001151581525060008060015481526020019081526020016000206000820151816000019080519060200190610a8a929190610fbd565b506020820151816001015560408201518160020160006101000a81548173ffffffffffffffffffffffffffffffffffffffff021916908373ffffffffffffffffffffffffffffffffffffffff16021790555060608201518160020160146101000a81548160ff02191690831515021790555060808201518160020160156101000a81548160ff0219169083151502179055509050507f7e4422a4ddf8a88b4a912b15dfbe991da3282835439dc55dcce86d27457baaf7848483604051610b5293929190611594565b60405180910390a15092915050565b600080600190505b60035481111515610d2e576060600260008381526020019081526020016000206001018054600181600116156101000203166002900480601f016020809104026020016040519081016040528092919081815260200182805460018160011615610100020316600290048015610c205780601f10610bf557610100808354040283529160200191610c20565b820191906000526020600020905b815481529060010190602001808311610c0357829003601f168201915b50505050509050836040516020018082805190602001908083835b602083101515610c605780518252602082019150602081019050602083039250610c3b565b6001836020036101000a03801982511681845116808217855250505050505090500191505060405160208183030381529060405280519060200120816040516020018082805190602001908083835b602083101515610cd45780518252602082019150602081019050602083039250610caf565b6001836020036101000a038019825116818451168082178552505050505050905001915050604051602081830303815290604052805190602001201415610d2057600092505050610d34565b508080600101915050610b69565b50600190505b919050565b600080600190505b60015481111515610dd35760008060008381526020019081526020016000206001015490508360405160200180828152602001915050604051602081830303815290604052805190602001208160405160200180828152602001915050604051602081830303815290604052805190602001201415610dc557600092505050610dd9565b508080600101915050610d41565b50600190505b919050565b600080600190505b60015481111515610e775760008060008381526020019081526020016000206001015490508360405160200180828152602001915050604051602081830303815290604052805190602001208160405160200180828152602001915050604051602081830303815290604052805190602001201415610e69578192505050610e7d565b508080600101915050610de6565b50600090505b919050565b600080600190505b60015481111515610fb257600080600083815260200190815260200160002060020160009054906101000a900473ffffffffffffffffffffffffffffffffffffffff16905083604051602001808273ffffffffffffffffffffffffffffffffffffffff1673ffffffffffffffffffffffffffffffffffffffff166c010000000000000000000000000281526014019150506040516020818303038152906040528051906020012081604051602001808273ffffffffffffffffffffffffffffffffffffffff1673ffffffffffffffffffffffffffffffffffffffff166c01000000000000000000000000028152601401915050604051602081830303815290604052805190602001201415610fa457600092505050610fb8565b508080600101915050610e8a565b50600190505b919050565b828054600181600116156101000203166002900490600052602060002090601f016020900481019282601f10610ffe57805160ff191683800117855561102c565b8280016001018555821561102c579182015b8281111561102b578251825591602001919060010190611010565b5b509050611039919061103d565b5090565b61105f91905b8082111561105b576000816000905550600101611043565b5090565b90565b600082601f830112151561107557600080fd5b813561108861108382611810565b6117e3565b915080825260208301602083018583830111156110a457600080fd5b6110af8382846118a4565b50505092915050565b60006110c4823561189a565b905092915050565b600080604083850312156110df57600080fd5b600083013567ffffffffffffffff8111156110f957600080fd5b61110585828601611062565b925050602083013567ffffffffffffffff81111561112257600080fd5b61112e85828601611062565b9150509250929050565b6000806040838503121561114b57600080fd5b600083013567ffffffffffffffff81111561116557600080fd5b61117185828601611062565b9250506020611182858286016110b8565b9150509250929050565b60006020828403121561119e57600080fd5b60006111ac848285016110b8565b91505092915050565b600080604083850312156111c857600080fd5b60006111d6858286016110b8565b92505060206111e7858286016110b8565b9150509250929050565b6111fa81611852565b82525050565b61120981611864565b82525050565b600061121a82611847565b80845261122e8160208601602086016118b3565b611237816118e6565b602085010191505092915050565b60006112508261183c565b8084526112648160208601602086016118b3565b61126d816118e6565b602085010191505092915050565b6000602a82527f54686973204163636f756e74204164647265737320697320616c72656164792060208301527f72656769737465726564000000000000000000000000000000000000000000006040830152606082019050919050565b6000601782527f596f75206861766520616c726561647920566f7465642e0000000000000000006020830152604082019050919050565b6000602182527f5468697320506172747920697320616c7265616479207265676973746572656460208301527f2e000000000000000000000000000000000000000000000000000000000000006040830152606082019050919050565b6000602c82527f506c6561736520766f746520776974682072656769737465726564204163636f60208301527f756e7420416464726573732e00000000000000000000000000000000000000006040830152606082019050919050565b6000603282527f596f7520646f6e7420686176652072696768747320746f20706572666f726d2060208301527f41444d494e206f7065726174696f6e73202100000000000000000000000000006040830152606082019050919050565b6000601f82527f596f7520617265206e6f74207265676973746572656420746f20766f74652e006020830152604082019050919050565b6000602982527f596f752063616e6e6f7420757365206f776e6572206164647265737320746f2060208301527f72656769737465722e00000000000000000000000000000000000000000000006040830152606082019050919050565b6000601f82527f43616e6469646174652073656c656374696f6e20697320696e76616c69642e006020830152604082019050919050565b6000602482527f5468697320566f74657220496420697320616c7265616479207265676973746560208301527f7265642e000000000000000000000000000000000000000000000000000000006040830152606082019050919050565b61155781611890565b82525050565b60006040820190508181036000830152611577818561120f565b9050818103602083015261158b818461120f565b90509392505050565b600060608201905081810360008301526115ae818661120f565b90506115bd602083018561154e565b6115ca60408301846111f1565b949350505050565b600060808201905081810360008301526115ec8187611245565b905081810360208301526116008186611245565b905061160f604083018561154e565b61161c6060830184611200565b95945050505050565b600060a082019050818103600083015261163f8188611245565b905061164e602083018761154e565b61165b60408301866111f1565b6116686060830185611200565b6116756080830184611200565b9695505050505050565b600060208201905081810360008301526116988161127b565b9050919050565b600060208201905081810360008301526116b8816112d8565b9050919050565b600060208201905081810360008301526116d88161130f565b9050919050565b600060208201905081810360008301526116f88161136c565b9050919050565b60006020820190508181036000830152611718816113c9565b9050919050565b6000602082019050818103600083015261173881611426565b9050919050565b600060208201905081810360008301526117588161145d565b9050919050565b60006020820190508181036000830152611778816114ba565b9050919050565b60006020820190508181036000830152611798816114f1565b9050919050565b60006020820190506117b4600083018461154e565b92915050565b60006040820190506117cf600083018561154e565b6117dc602083018461154e565b9392505050565b6000604051905081810181811067ffffffffffffffff8211171561180657600080fd5b8060405250919050565b600067ffffffffffffffff82111561182757600080fd5b601f19601f8301169050602081019050919050565b600081519050919050565b600081519050919050565b600061185d82611870565b9050919050565b60008115159050919050565b600073ffffffffffffffffffffffffffffffffffffffff82169050919050565b6000819050919050565b6000819050919050565b82818337600083830152505050565b60005b838110156118d15780820151818401526020810190506118b6565b838111156118e0576000848401525b50505050565b6000601f19601f830116905091905056fea265627a7a72305820c7ddf7ac5e6f58c886a6712efbbdd087a93f8874c5c04831ebcdd0dddf19e9a66c6578706572696d656e74616cf50037",
  "source": "pragma solidity >=0.4.22 <0.9.0;\r\npragma experimental ABIEncoderV2;\r\n\r\ncontract Election {\r\n    struct Voter {\r\n        string name;\r\n        uint256 voterId;\r\n        address accountAddress;\r\n        bool voted;\r\n        bool exists;\r\n    }\r\n\r\n    struct Candidate {\r\n        string name;\r\n        string party;\r\n        uint256 noOfVotes;\r\n        bool exists;\r\n    }\r\n\r\n    mapping(uint256 => Voter) public voters;\r\n    uint256 public voterCount = 0;\r\n\r\n    mapping(uint256 => Candidate) public candidates;\r\n    uint256 public candidateCount = 0;\r\n\r\n    uint256 public electionState;\r\n\r\n    address adminAddress;\r\n\r\n    constructor() public {\r\n        adminAddress = msg.sender;\r\n    }\r\n\r\n    modifier onlyOwner() {\r\n        require(\r\n            msg.sender == adminAddress,\r\n            \"You dont have rights to perform ADMIN operations !\"\r\n        );\r\n        _;\r\n    }\r\n\r\n    function registerVoter(string memory _name, uint256 _voterId)\r\n        public\r\n        returns (uint256)\r\n    {\r\n        address _accountAddress = msg.sender;\r\n        require(\r\n            _accountAddress != adminAddress,\r\n            \"You cannot use owner address to register.\"\r\n        );\r\n        require(\r\n            checkIfAddressExist(_accountAddress),\r\n            \"This Account Address is already registered\"\r\n        );\r\n        require(\r\n            checkIfVoterIdExist(_voterId),\r\n            \"This Voter Id is already registered.\"\r\n        );\r\n        voterCount++;\r\n        voters[voterCount] = Voter(\r\n            _name,\r\n            _voterId,\r\n            _accountAddress,\r\n            false,\r\n            true\r\n        );\r\n        emit VoterCreated(_name, _voterId, _accountAddress);\r\n    }\r\n\r\n    function registerCandidate(string memory _name, string memory _party)\r\n        public\r\n        onlyOwner\r\n        returns (uint256)\r\n    {\r\n        require(checkIfPartyExist(_party), \"This Party is already registered.\");\r\n        candidateCount++;\r\n        candidates[candidateCount] = Candidate(_name, _party, 0, true);\r\n        emit CandidateCreated(_name, _party);\r\n    }\r\n\r\n    function vote(uint256 _voterId, uint256 _candidateId) public {\r\n        require(\r\n            !checkIfVoterIdExist(_voterId),\r\n            \"You are not registered to vote.\"\r\n        );\r\n        require(\r\n            _candidateId > 0 && _candidateId <= candidateCount,\r\n            \"Candidate selection is invalid.\"\r\n        );\r\n        uint256 id = returnCount(_voterId);\r\n        require(\r\n            voters[id].accountAddress == msg.sender,\r\n            \"Please vote with registered Account Address.\"\r\n        );\r\n        require(!voters[id].voted, \"You have already Voted.\");\r\n        candidates[_candidateId].noOfVotes++;\r\n        voters[id].voted = true;\r\n        emit VoterVoted(_voterId, _candidateId);\r\n    }\r\n\r\n    function returnCount(uint256 _inputVoterId) private returns (uint256) {\r\n        for (uint256 i = 1; i <= voterCount; i++) {\r\n            uint256 idVoter = voters[i].voterId;\r\n            if (\r\n                keccak256(abi.encodePacked(idVoter)) ==\r\n                keccak256(abi.encodePacked(_inputVoterId))\r\n            ) {\r\n                return i;\r\n                break;\r\n            }\r\n        }\r\n        return 0;\r\n    }\r\n\r\n    function checkIfVoterIdExist(uint256 _inputVoterId) private returns (bool) {\r\n        for (uint256 i = 1; i <= voterCount; i++) {\r\n            uint256 idVoter = voters[i].voterId;\r\n            if (\r\n                keccak256(abi.encodePacked(idVoter)) ==\r\n                keccak256(abi.encodePacked(_inputVoterId))\r\n            ) {\r\n                return false;\r\n                break;\r\n            }\r\n        }\r\n        return true;\r\n    }\r\n\r\n    function checkIfAddressExist(address _inputAccountAddress)\r\n        private\r\n        returns (bool)\r\n    {\r\n        for (uint256 i = 1; i <= voterCount; i++) {\r\n            address addressAccount = voters[i].accountAddress;\r\n            if (\r\n                keccak256(abi.encodePacked(addressAccount)) ==\r\n                keccak256(abi.encodePacked(_inputAccountAddress))\r\n            ) {\r\n                return false;\r\n                break;\r\n            }\r\n        }\r\n        return true;\r\n    }\r\n\r\n    function checkIfPartyExist(string memory _inputParty)\r\n        private\r\n        returns (bool)\r\n    {\r\n        for (uint256 i = 1; i <= candidateCount; i++) {\r\n            string memory partyName = candidates[i].party;\r\n            if (\r\n                keccak256(abi.encodePacked(partyName)) ==\r\n                keccak256(abi.encodePacked(_inputParty))\r\n            ) {\r\n                return false;\r\n                break;\r\n            }\r\n        }\r\n        return true;\r\n    }\r\n\r\n    event VoterCreated(string name, uint256 voterId, address accountAddress);\r\n    event CandidateCreated(string name, string party);\r\n    event VoterVoted(uint256 voterId, uint256 candidateId);\r\n}\r\n",
  "sourcePath": "C:/Users/harshad/Documents/Decentralized-Voting-Management-System/contracts/Election.sol",
  "compiler": {
    "name": "solc",
    "version": "0.5.0+commit.1d4f565a.Emscripten.clang"
  },
  "schemaVersion": "3.0.1",
  "updatedAt": "2022-03-09T18:52:58.670Z",
  "devdoc": {
    "methods": {}
  },
  "userdoc": {
    "methods": {}
  }
}