{
  "contractName": "Election",
  "abi": [
    {
      "constant": true,
      "inputs": [],
      "name": "electionState",
      "outputs": [
        {
          "name": "",
          "type": "uint256"
        }
      ],
      "payable": false,
      "stateMutability": "view",
      "type": "function",
      "signature": "0x2280043d"
    },
    {
      "constant": true,
      "inputs": [
        {
          "name": "",
          "type": "uint256"
        }
      ],
      "name": "candidates",
      "outputs": [
        {
          "name": "id",
          "type": "uint256"
        },
        {
          "name": "name",
          "type": "string"
        },
        {
          "name": "party",
          "type": "string"
        },
        {
          "name": "noOfVotes",
          "type": "uint256"
        },
        {
          "name": "exists",
          "type": "bool"
        }
      ],
      "payable": false,
      "stateMutability": "view",
      "type": "function",
      "signature": "0x3477ee2e"
    },
    {
      "constant": true,
      "inputs": [],
      "name": "voterCount",
      "outputs": [
        {
          "name": "",
          "type": "uint256"
        }
      ],
      "payable": false,
      "stateMutability": "view",
      "type": "function",
      "signature": "0x42169e48"
    },
    {
      "constant": true,
      "inputs": [],
      "name": "candidateCount",
      "outputs": [
        {
          "name": "",
          "type": "uint256"
        }
      ],
      "payable": false,
      "stateMutability": "view",
      "type": "function",
      "signature": "0xa9a981a3"
    },
    {
      "constant": true,
      "inputs": [
        {
          "name": "",
          "type": "uint256"
        }
      ],
      "name": "voters",
      "outputs": [
        {
          "name": "name",
          "type": "string"
        },
        {
          "name": "voterId",
          "type": "uint256"
        },
        {
          "name": "accountAddress",
          "type": "address"
        },
        {
          "name": "authorized",
          "type": "bool"
        },
        {
          "name": "voted",
          "type": "bool"
        },
        {
          "name": "exists",
          "type": "bool"
        }
      ],
      "payable": false,
      "stateMutability": "view",
      "type": "function",
      "signature": "0xda58c7d9"
    },
    {
      "inputs": [],
      "payable": false,
      "stateMutability": "nonpayable",
      "type": "constructor",
      "signature": "constructor"
    },
    {
      "anonymous": false,
      "inputs": [
        {
          "indexed": false,
          "name": "name",
          "type": "string"
        },
        {
          "indexed": false,
          "name": "voterId",
          "type": "uint256"
        },
        {
          "indexed": false,
          "name": "accountAddress",
          "type": "address"
        }
      ],
      "name": "VoterCreated",
      "type": "event",
      "signature": "0x7e4422a4ddf8a88b4a912b15dfbe991da3282835439dc55dcce86d27457baaf7"
    },
    {
      "anonymous": false,
      "inputs": [
        {
          "indexed": false,
          "name": "name",
          "type": "string"
        },
        {
          "indexed": false,
          "name": "party",
          "type": "string"
        }
      ],
      "name": "CandidateCreated",
      "type": "event",
      "signature": "0x2e54601340a570f400320f889c40c79d337a860379cf63e97d44c6386230b341"
    },
    {
      "anonymous": false,
      "inputs": [
        {
          "indexed": false,
          "name": "voterId",
          "type": "uint256"
        },
        {
          "indexed": false,
          "name": "candidateId",
          "type": "uint256"
        }
      ],
      "name": "VoterVoted",
      "type": "event",
      "signature": "0x888af08f757422d6a506e900aa26d9b2bdb7566a2983214e29ebdfaf06620554"
    },
    {
      "constant": false,
      "inputs": [],
      "name": "startElection",
      "outputs": [],
      "payable": false,
      "stateMutability": "nonpayable",
      "type": "function",
      "signature": "0x62d73eb8"
    },
    {
      "constant": false,
      "inputs": [],
      "name": "startRegistartionPhase",
      "outputs": [],
      "payable": false,
      "stateMutability": "nonpayable",
      "type": "function",
      "signature": "0x35d56314"
    },
    {
      "constant": false,
      "inputs": [],
      "name": "startVotingPhase",
      "outputs": [],
      "payable": false,
      "stateMutability": "nonpayable",
      "type": "function",
      "signature": "0xcb43284e"
    },
    {
      "constant": false,
      "inputs": [],
      "name": "showResultsPhase",
      "outputs": [],
      "payable": false,
      "stateMutability": "nonpayable",
      "type": "function",
      "signature": "0x014d3b87"
    },
    {
      "constant": false,
      "inputs": [],
      "name": "endElection",
      "outputs": [],
      "payable": false,
      "stateMutability": "nonpayable",
      "type": "function",
      "signature": "0x59f78468"
    },
    {
      "constant": false,
      "inputs": [
        {
          "name": "_name",
          "type": "string"
        },
        {
          "name": "_voterId",
          "type": "uint256"
        }
      ],
      "name": "registerVoter",
      "outputs": [
        {
          "name": "",
          "type": "uint256"
        }
      ],
      "payable": false,
      "stateMutability": "nonpayable",
      "type": "function",
      "signature": "0xe661ea5f"
    },
    {
      "constant": false,
      "inputs": [
        {
          "name": "_name",
          "type": "string"
        },
        {
          "name": "_party",
          "type": "string"
        }
      ],
      "name": "registerCandidate",
      "outputs": [
        {
          "name": "",
          "type": "uint256"
        }
      ],
      "payable": false,
      "stateMutability": "nonpayable",
      "type": "function",
      "signature": "0x0dbce4dd"
    },
    {
      "constant": false,
      "inputs": [
        {
          "name": "_voterId",
          "type": "uint256"
        },
        {
          "name": "_candidateId",
          "type": "uint256"
        }
      ],
      "name": "vote",
      "outputs": [],
      "payable": false,
      "stateMutability": "nonpayable",
      "type": "function",
      "signature": "0xb384abef"
    },
    {
      "constant": false,
      "inputs": [
        {
          "name": "_voterId",
          "type": "uint256"
        }
      ],
      "name": "authorizeVoter",
      "outputs": [],
      "payable": false,
      "stateMutability": "nonpayable",
      "type": "function",
      "signature": "0x535c392f"
    }
  ],
  "bytecode": "0x60806040526000600155600060035534801561001a57600080fd5b5033600560006101000a81548173ffffffffffffffffffffffffffffffffffffffff021916908373ffffffffffffffffffffffffffffffffffffffff1602179055506122028061006b6000396000f3fe6080604052600436106100d0576000357c0100000000000000000000000000000000000000000000000000000000900463ffffffff168063014d3b87146100d55780630dbce4dd146100ec5780632280043d146101295780633477ee2e1461015457806335d563141461019557806342169e48146101ac578063535c392f146101d757806359f784681461020057806362d73eb814610217578063a9a981a31461022e578063b384abef14610259578063cb43284e14610282578063da58c7d914610299578063e661ea5f146102db575b600080fd5b3480156100e157600080fd5b506100ea610318565b005b3480156100f857600080fd5b50610113600480360361010e91908101906117a8565b6103b3565b604051610120919061200f565b60405180910390f35b34801561013557600080fd5b5061013e6105dd565b60405161014b919061200f565b60405180910390f35b34801561016057600080fd5b5061017b60048036036101769190810190611868565b6105e3565b60405161018c95949392919061202a565b60405180910390f35b3480156101a157600080fd5b506101aa610756565b005b3480156101b857600080fd5b506101c16107f2565b6040516101ce919061200f565b60405180910390f35b3480156101e357600080fd5b506101fe60048036036101f99190810190611868565b6107f8565b005b34801561020c57600080fd5b5061021561095b565b005b34801561022357600080fd5b5061022c6109f7565b005b34801561023a57600080fd5b50610243610a93565b604051610250919061200f565b60405180910390f35b34801561026557600080fd5b50610280600480360361027b9190810190611891565b610a99565b005b34801561028e57600080fd5b50610297610d8b565b005b3480156102a557600080fd5b506102c060048036036102bb9190810190611868565b610e27565b6040516102d296959493929190611de7565b60405180910390f35b3480156102e757600080fd5b5061030260048036036102fd9190810190611814565b610f42565b60405161030f919061200f565b60405180910390f35b600560009054906101000a900473ffffffffffffffffffffffffffffffffffffffff1673ffffffffffffffffffffffffffffffffffffffff163373ffffffffffffffffffffffffffffffffffffffff161415156103aa576040517f08c379a00000000000000000000000000000000000000000000000000000000081526004016103a190611ecf565b60405180910390fd5b60048081905550565b6000600560009054906101000a900473ffffffffffffffffffffffffffffffffffffffff1673ffffffffffffffffffffffffffffffffffffffff163373ffffffffffffffffffffffffffffffffffffffff16141515610447576040517f08c379a000000000000000000000000000000000000000000000000000000000815260040161043e90611ecf565b60405180910390fd5b600260045414151561048e576040517f08c379a000000000000000000000000000000000000000000000000000000000815260040161048590611f4f565b60405180910390fd5b6104978261123d565b15156104d8576040517f08c379a00000000000000000000000000000000000000000000000000000000081526004016104cf90611e8f565b60405180910390fd5b60036000815480929190600101919050555060a06040519081016040528060035481526020018481526020018381526020016000815260200160011515815250600260006003548152602001908152602001600020600082015181600001556020820151816001019080519060200190610553929190611699565b506040820151816002019080519060200190610570929190611699565b506060820151816003015560808201518160040160006101000a81548160ff0219169083151502179055509050507f2e54601340a570f400320f889c40c79d337a860379cf63e97d44c6386230b34183836040516105cf929190611d72565b60405180910390a192915050565b60045481565b6002602052806000526040600020600091509050806000015490806001018054600181600116156101000203166002900480601f0160208091040260200160405190810160405280929190818152602001828054600181600116156101000203166002900480156106955780601f1061066a57610100808354040283529160200191610695565b820191906000526020600020905b81548152906001019060200180831161067857829003601f168201915b505050505090806002018054600181600116156101000203166002900480601f0160208091040260200160405190810160405280929190818152602001828054600181600116156101000203166002900480156107335780601f1061070857610100808354040283529160200191610733565b820191906000526020600020905b81548152906001019060200180831161071657829003601f168201915b5050505050908060030154908060040160009054906101000a900460ff16905085565b600560009054906101000a900473ffffffffffffffffffffffffffffffffffffffff1673ffffffffffffffffffffffffffffffffffffffff163373ffffffffffffffffffffffffffffffffffffffff161415156107e8576040517f08c379a00000000000000000000000000000000000000000000000000000000081526004016107df90611ecf565b60405180910390fd5b6002600481905550565b60015481565b600560009054906101000a900473ffffffffffffffffffffffffffffffffffffffff1673ffffffffffffffffffffffffffffffffffffffff163373ffffffffffffffffffffffffffffffffffffffff1614151561088a576040517f08c379a000000000000000000000000000000000000000000000000000000000815260040161088190611ecf565b60405180910390fd5b60026004541415156108d1576040517f08c379a00000000000000000000000000000000000000000000000000000000081526004016108c890611faf565b60405180910390fd5b6108da81611415565b15151561091c576040517f08c379a000000000000000000000000000000000000000000000000000000000815260040161091390611f8f565b60405180910390fd5b6000610927826114ba565b9050600160008083815260200190815260200160002060020160146101000a81548160ff0219169083151502179055505050565b600560009054906101000a900473ffffffffffffffffffffffffffffffffffffffff1673ffffffffffffffffffffffffffffffffffffffff163373ffffffffffffffffffffffffffffffffffffffff161415156109ed576040517f08c379a00000000000000000000000000000000000000000000000000000000081526004016109e490611ecf565b60405180910390fd5b6000600481905550565b600560009054906101000a900473ffffffffffffffffffffffffffffffffffffffff1673ffffffffffffffffffffffffffffffffffffffff163373ffffffffffffffffffffffffffffffffffffffff16141515610a89576040517f08c379a0000000000000000000000000000000000000000000000000000000008152600401610a8090611ecf565b60405180910390fd5b6001600481905550565b60035481565b6003600454141515610ae0576040517f08c379a0000000000000000000000000000000000000000000000000000000008152600401610ad790611eef565b60405180910390fd5b610ae982611415565b151515610b2b576040517f08c379a0000000000000000000000000000000000000000000000000000000008152600401610b2290611f0f565b60405180910390fd5b600081118015610b3d57506003548111155b1515610b7e576040517f08c379a0000000000000000000000000000000000000000000000000000000008152600401610b7590611fcf565b60405180910390fd5b6000610b89836114ba565b90503373ffffffffffffffffffffffffffffffffffffffff1660008083815260200190815260200160002060020160009054906101000a900473ffffffffffffffffffffffffffffffffffffffff1673ffffffffffffffffffffffffffffffffffffffff16141515610c30576040517f08c379a0000000000000000000000000000000000000000000000000000000008152600401610c2790611eaf565b60405180910390fd5b60008082815260200190815260200160002060020160149054906101000a900460ff161515610c94576040517f08c379a0000000000000000000000000000000000000000000000000000000008152600401610c8b90611f2f565b60405180910390fd5b60008082815260200190815260200160002060020160159054906101000a900460ff16151515610cf9576040517f08c379a0000000000000000000000000000000000000000000000000000000008152600401610cf090611e6f565b60405180910390fd5b6002600083815260200190815260200160002060030160008154809291906001019190505550600160008083815260200190815260200160002060020160156101000a81548160ff0219169083151502179055507f888af08f757422d6a506e900aa26d9b2bdb7566a2983214e29ebdfaf066205548383604051610d7e92919061208b565b60405180910390a1505050565b600560009054906101000a900473ffffffffffffffffffffffffffffffffffffffff1673ffffffffffffffffffffffffffffffffffffffff163373ffffffffffffffffffffffffffffffffffffffff16141515610e1d576040517f08c379a0000000000000000000000000000000000000000000000000000000008152600401610e1490611ecf565b60405180910390fd5b6003600481905550565b6000602052806000526040600020600091509050806000018054600181600116156101000203166002900480601f016020809104026020016040519081016040528092919081815260200182805460018160011615610100020316600290048015610ed35780601f10610ea857610100808354040283529160200191610ed3565b820191906000526020600020905b815481529060010190602001808311610eb657829003601f168201915b5050505050908060010154908060020160009054906101000a900473ffffffffffffffffffffffffffffffffffffffff16908060020160149054906101000a900460ff16908060020160159054906101000a900460ff16908060020160169054906101000a900460ff16905086565b60006002600454141515610f8b576040517f08c379a0000000000000000000000000000000000000000000000000000000008152600401610f8290611f4f565b60405180910390fd5b6000339050600560009054906101000a900473ffffffffffffffffffffffffffffffffffffffff1673ffffffffffffffffffffffffffffffffffffffff168173ffffffffffffffffffffffffffffffffffffffff1614151515611023576040517f08c379a000000000000000000000000000000000000000000000000000000000815260040161101a90611f6f565b60405180910390fd5b61102c8161155e565b151561106d576040517f08c379a000000000000000000000000000000000000000000000000000000000815260040161106490611e4f565b60405180910390fd5b61107683611415565b15156110b7576040517f08c379a00000000000000000000000000000000000000000000000000000000081526004016110ae90611fef565b60405180910390fd5b60016000815480929190600101919050555060c0604051908101604052808581526020018481526020018273ffffffffffffffffffffffffffffffffffffffff1681526020016000151581526020016000151581526020016001151581525060008060015481526020019081526020016000206000820151816000019080519060200190611146929190611699565b506020820151816001015560408201518160020160006101000a81548173ffffffffffffffffffffffffffffffffffffffff021916908373ffffffffffffffffffffffffffffffffffffffff16021790555060608201518160020160146101000a81548160ff02191690831515021790555060808201518160020160156101000a81548160ff02191690831515021790555060a08201518160020160166101000a81548160ff0219169083151502179055509050507f7e4422a4ddf8a88b4a912b15dfbe991da3282835439dc55dcce86d27457baaf784848360405161122e93929190611da9565b60405180910390a15092915050565b600080600190505b6003548111151561140a576060600260008381526020019081526020016000206002018054600181600116156101000203166002900480601f0160208091040260200160405190810160405280929190818152602001828054600181600116156101000203166002900480156112fc5780601f106112d1576101008083540402835291602001916112fc565b820191906000526020600020905b8154815290600101906020018083116112df57829003601f168201915b50505050509050836040516020018082805190602001908083835b60208310151561133c5780518252602082019150602081019050602083039250611317565b6001836020036101000a03801982511681845116808217855250505050505090500191505060405160208183030381529060405280519060200120816040516020018082805190602001908083835b6020831015156113b0578051825260208201915060208101905060208303925061138b565b6001836020036101000a0380198251168184511680821785525050505050509050019150506040516020818303038152906040528051906020012014156113fc57600092505050611410565b508080600101915050611245565b50600190505b919050565b600080600190505b600154811115156114af57600080600083815260200190815260200160002060010154905083604051602001808281526020019150506040516020818303038152906040528051906020012081604051602001808281526020019150506040516020818303038152906040528051906020012014156114a1576000925050506114b5565b50808060010191505061141d565b50600190505b919050565b600080600190505b600154811115156115535760008060008381526020019081526020016000206001015490508360405160200180828152602001915050604051602081830303815290604052805190602001208160405160200180828152602001915050604051602081830303815290604052805190602001201415611545578192505050611559565b5080806001019150506114c2565b50600090505b919050565b600080600190505b6001548111151561168e57600080600083815260200190815260200160002060020160009054906101000a900473ffffffffffffffffffffffffffffffffffffffff16905083604051602001808273ffffffffffffffffffffffffffffffffffffffff1673ffffffffffffffffffffffffffffffffffffffff166c010000000000000000000000000281526014019150506040516020818303038152906040528051906020012081604051602001808273ffffffffffffffffffffffffffffffffffffffff1673ffffffffffffffffffffffffffffffffffffffff166c0100000000000000000000000002815260140191505060405160208183030381529060405280519060200120141561168057600092505050611694565b508080600101915050611566565b50600190505b919050565b828054600181600116156101000203166002900490600052602060002090601f016020900481019282601f106116da57805160ff1916838001178555611708565b82800160010185558215611708579182015b828111156117075782518255916020019190600101906116ec565b5b5090506117159190611719565b5090565b61173b91905b8082111561173757600081600090555060010161171f565b5090565b90565b600082601f830112151561175157600080fd5b813561176461175f826120e1565b6120b4565b9150808252602083016020830185838301111561178057600080fd5b61178b838284612175565b50505092915050565b60006117a0823561216b565b905092915050565b600080604083850312156117bb57600080fd5b600083013567ffffffffffffffff8111156117d557600080fd5b6117e18582860161173e565b925050602083013567ffffffffffffffff8111156117fe57600080fd5b61180a8582860161173e565b9150509250929050565b6000806040838503121561182757600080fd5b600083013567ffffffffffffffff81111561184157600080fd5b61184d8582860161173e565b925050602061185e85828601611794565b9150509250929050565b60006020828403121561187a57600080fd5b600061188884828501611794565b91505092915050565b600080604083850312156118a457600080fd5b60006118b285828601611794565b92505060206118c385828601611794565b9150509250929050565b6118d681612123565b82525050565b6118e581612135565b82525050565b60006118f682612118565b80845261190a816020860160208601612184565b611913816121b7565b602085010191505092915050565b600061192c8261210d565b808452611940816020860160208601612184565b611949816121b7565b602085010191505092915050565b6000602a82527f54686973204163636f756e74204164647265737320697320616c72656164792060208301527f72656769737465726564000000000000000000000000000000000000000000006040830152606082019050919050565b6000601782527f596f75206861766520616c726561647920766f7465642e0000000000000000006020830152604082019050919050565b6000602182527f5468697320506172747920697320616c7265616479207265676973746572656460208301527f2e000000000000000000000000000000000000000000000000000000000000006040830152606082019050919050565b6000602c82527f506c6561736520766f746520776974682072656769737465726564204163636f60208301527f756e7420416464726573732e00000000000000000000000000000000000000006040830152606082019050919050565b6000603282527f596f7520646f6e7420686176652072696768747320746f20706572666f726d2060208301527f41444d494e206f7065726174696f6e73202100000000000000000000000000006040830152606082019050919050565b6000601982527f54686973206973206e6f7420566f74696e672050686173652e000000000000006020830152604082019050919050565b6000601f82527f596f7520617265206e6f74207265676973746572656420746f20766f74652e006020830152604082019050919050565b6000601e82527f596f7520617265206e6f7420617574686f72697a6520746f20766f74652e00006020830152604082019050919050565b6000601f82527f54686973206973206e6f7420526567697374726174696f6e2050686173652e006020830152604082019050919050565b6000602982527f596f752063616e6e6f7420757365206f776e6572206164647265737320746f2060208301527f72656769737465722e00000000000000000000000000000000000000000000006040830152606082019050919050565b6000602082527f5468697320766f746572204944206973206e6f7420726567697374657265642e6020830152604082019050919050565b6000603482527f417574686f72697a6174696f6e20697320616c6c6f77656420696e205265676960208301527f7374726174696f6e205068617365206f6e6c792e0000000000000000000000006040830152606082019050919050565b6000601f82527f43616e6469646174652073656c656374696f6e20697320696e76616c69642e006020830152604082019050919050565b6000602482527f5468697320566f74657220496420697320616c7265616479207265676973746560208301527f7265642e000000000000000000000000000000000000000000000000000000006040830152606082019050919050565b611d6c81612161565b82525050565b60006040820190508181036000830152611d8c81856118eb565b90508181036020830152611da081846118eb565b90509392505050565b60006060820190508181036000830152611dc381866118eb565b9050611dd26020830185611d63565b611ddf60408301846118cd565b949350505050565b600060c0820190508181036000830152611e018189611921565b9050611e106020830188611d63565b611e1d60408301876118cd565b611e2a60608301866118dc565b611e3760808301856118dc565b611e4460a08301846118dc565b979650505050505050565b60006020820190508181036000830152611e6881611957565b9050919050565b60006020820190508181036000830152611e88816119b4565b9050919050565b60006020820190508181036000830152611ea8816119eb565b9050919050565b60006020820190508181036000830152611ec881611a48565b9050919050565b60006020820190508181036000830152611ee881611aa5565b9050919050565b60006020820190508181036000830152611f0881611b02565b9050919050565b60006020820190508181036000830152611f2881611b39565b9050919050565b60006020820190508181036000830152611f4881611b70565b9050919050565b60006020820190508181036000830152611f6881611ba7565b9050919050565b60006020820190508181036000830152611f8881611bde565b9050919050565b60006020820190508181036000830152611fa881611c3b565b9050919050565b60006020820190508181036000830152611fc881611c72565b9050919050565b60006020820190508181036000830152611fe881611ccf565b9050919050565b6000602082019050818103600083015261200881611d06565b9050919050565b60006020820190506120246000830184611d63565b92915050565b600060a08201905061203f6000830188611d63565b81810360208301526120518187611921565b905081810360408301526120658186611921565b90506120746060830185611d63565b61208160808301846118dc565b9695505050505050565b60006040820190506120a06000830185611d63565b6120ad6020830184611d63565b9392505050565b6000604051905081810181811067ffffffffffffffff821117156120d757600080fd5b8060405250919050565b600067ffffffffffffffff8211156120f857600080fd5b601f19601f8301169050602081019050919050565b600081519050919050565b600081519050919050565b600061212e82612141565b9050919050565b60008115159050919050565b600073ffffffffffffffffffffffffffffffffffffffff82169050919050565b6000819050919050565b6000819050919050565b82818337600083830152505050565b60005b838110156121a2578082015181840152602081019050612187565b838111156121b1576000848401525b50505050565b6000601f19601f830116905091905056fea265627a7a723058207397639fd711155c882ece47d4184b316752fb9303acf1ce27775133adc339d76c6578706572696d656e74616cf50037",
  "source": "pragma solidity >=0.4.22 <0.9.0;\r\npragma experimental ABIEncoderV2;\r\n\r\ncontract Election {\r\n    struct Voter {\r\n        string name;\r\n        uint256 voterId;\r\n        address accountAddress;\r\n        bool authorized;\r\n        bool voted;\r\n        bool exists;\r\n    }\r\n\r\n    struct Candidate {\r\n        uint256 id;\r\n        string name;\r\n        string party;\r\n        uint256 noOfVotes;\r\n        bool exists;\r\n    }\r\n\r\n    mapping(uint256 => Voter) public voters;\r\n    uint256 public voterCount = 0;\r\n\r\n    mapping(uint256 => Candidate) public candidates;\r\n    uint256 public candidateCount = 0;\r\n\r\n    uint256 public electionState;\r\n\r\n    address adminAddress;\r\n\r\n    constructor() public {\r\n        adminAddress = msg.sender;\r\n    }\r\n\r\n    modifier onlyOwner() {\r\n        require(\r\n            msg.sender == adminAddress,\r\n            \"You dont have rights to perform ADMIN operations !\"\r\n        );\r\n        _;\r\n    }\r\n\r\n    function startElection() public onlyOwner {\r\n        electionState = 1;\r\n    }\r\n\r\n    function startRegistartionPhase() public onlyOwner {\r\n        electionState = 2;\r\n    }\r\n\r\n    function startVotingPhase() public onlyOwner {\r\n        electionState = 3;\r\n    }\r\n\r\n    function showResultsPhase() public onlyOwner {\r\n        electionState = 4;\r\n    }\r\n\r\n    function endElection() public onlyOwner {\r\n        electionState = 0;\r\n    }\r\n\r\n    function registerVoter(string memory _name, uint256 _voterId)\r\n        public\r\n        returns (uint256)\r\n    {\r\n        require(electionState == 2, \"This is not Registration Phase.\");\r\n        address _accountAddress = msg.sender;\r\n        require(\r\n            _accountAddress != adminAddress,\r\n            \"You cannot use owner address to register.\"\r\n        );\r\n        require(\r\n            checkIfAddressExist(_accountAddress),\r\n            \"This Account Address is already registered\"\r\n        );\r\n        require(\r\n            checkIfVoterIdExist(_voterId),\r\n            \"This Voter Id is already registered.\"\r\n        );\r\n        voterCount++;\r\n        voters[voterCount] = Voter(\r\n            _name,\r\n            _voterId,\r\n            _accountAddress,\r\n            false,\r\n            false,\r\n            true\r\n        );\r\n        emit VoterCreated(_name, _voterId, _accountAddress);\r\n    }\r\n\r\n    function registerCandidate(string memory _name, string memory _party)\r\n        public\r\n        onlyOwner\r\n        returns (uint256)\r\n    {\r\n        require(electionState == 2, \"This is not Registration Phase.\");\r\n        require(checkIfPartyExist(_party), \"This Party is already registered.\");\r\n        candidateCount++;\r\n        candidates[candidateCount] = Candidate(\r\n            candidateCount,\r\n            _name,\r\n            _party,\r\n            0,\r\n            true\r\n        );\r\n        emit CandidateCreated(_name, _party);\r\n    }\r\n\r\n    function vote(uint256 _voterId, uint256 _candidateId) public {\r\n        require(electionState == 3, \"This is not Voting Phase.\");\r\n        require(\r\n            !checkIfVoterIdExist(_voterId),\r\n            \"You are not registered to vote.\"\r\n        );\r\n        require(\r\n            _candidateId > 0 && _candidateId <= candidateCount,\r\n            \"Candidate selection is invalid.\"\r\n        );\r\n        uint256 id = returnCount(_voterId);\r\n        require(\r\n            voters[id].accountAddress == msg.sender,\r\n            \"Please vote with registered Account Address.\"\r\n        );\r\n        require(voters[id].authorized, \"You are not authorize to vote.\");\r\n        require(!voters[id].voted, \"You have already voted.\");\r\n        candidates[_candidateId].noOfVotes++;\r\n        voters[id].voted = true;\r\n        emit VoterVoted(_voterId, _candidateId);\r\n    }\r\n\r\n    function authorizeVoter(uint256 _voterId) public onlyOwner {\r\n        require(\r\n            electionState == 2,\r\n            \"Authorization is allowed in Registration Phase only.\"\r\n        );\r\n        require(\r\n            !checkIfVoterIdExist(_voterId),\r\n            \"This voter ID is not registered.\"\r\n        );\r\n        uint256 id = returnCount(_voterId);\r\n        voters[id].authorized = true;\r\n    }\r\n\r\n    function returnCount(uint256 _inputVoterId) private returns (uint256) {\r\n        for (uint256 i = 1; i <= voterCount; i++) {\r\n            uint256 idVoter = voters[i].voterId;\r\n            if (\r\n                keccak256(abi.encodePacked(idVoter)) ==\r\n                keccak256(abi.encodePacked(_inputVoterId))\r\n            ) {\r\n                return i;\r\n                break;\r\n            }\r\n        }\r\n        return 0;\r\n    }\r\n\r\n    function checkIfVoterIdExist(uint256 _inputVoterId) private returns (bool) {\r\n        for (uint256 i = 1; i <= voterCount; i++) {\r\n            uint256 idVoter = voters[i].voterId;\r\n            if (\r\n                keccak256(abi.encodePacked(idVoter)) ==\r\n                keccak256(abi.encodePacked(_inputVoterId))\r\n            ) {\r\n                return false;\r\n                break;\r\n            }\r\n        }\r\n        return true;\r\n    }\r\n\r\n    function checkIfAddressExist(address _inputAccountAddress)\r\n        private\r\n        returns (bool)\r\n    {\r\n        for (uint256 i = 1; i <= voterCount; i++) {\r\n            address addressAccount = voters[i].accountAddress;\r\n            if (\r\n                keccak256(abi.encodePacked(addressAccount)) ==\r\n                keccak256(abi.encodePacked(_inputAccountAddress))\r\n            ) {\r\n                return false;\r\n                break;\r\n            }\r\n        }\r\n        return true;\r\n    }\r\n\r\n    function checkIfPartyExist(string memory _inputParty)\r\n        private\r\n        returns (bool)\r\n    {\r\n        for (uint256 i = 1; i <= candidateCount; i++) {\r\n            string memory partyName = candidates[i].party;\r\n            if (\r\n                keccak256(abi.encodePacked(partyName)) ==\r\n                keccak256(abi.encodePacked(_inputParty))\r\n            ) {\r\n                return false;\r\n                break;\r\n            }\r\n        }\r\n        return true;\r\n    }\r\n\r\n    event VoterCreated(string name, uint256 voterId, address accountAddress);\r\n    event CandidateCreated(string name, string party);\r\n    event VoterVoted(uint256 voterId, uint256 candidateId);\r\n}\r\n",
  "sourcePath": "C:/Users/harshad/Documents/Decentralized-Voting-Management-System/contracts/Election.sol",
  "compiler": {
    "name": "solc",
    "version": "0.5.0+commit.1d4f565a.Emscripten.clang"
  },
  "schemaVersion": "3.0.1",
  "updatedAt": "2022-03-26T20:10:37.181Z",
  "devdoc": {
    "methods": {}
  },
  "userdoc": {
    "methods": {}
  }
}