{
  "contractName": "Election",
  "abi": [
    {
      "constant": true,
      "inputs": [],
      "name": "electionState",
      "outputs": [
        {
          "name": "",
          "type": "uint256"
        }
      ],
      "payable": false,
      "stateMutability": "view",
      "type": "function",
      "signature": "0x2280043d"
    },
    {
      "constant": true,
      "inputs": [
        {
          "name": "",
          "type": "uint256"
        }
      ],
      "name": "candidates",
      "outputs": [
        {
          "name": "id",
          "type": "uint256"
        },
        {
          "name": "name",
          "type": "string"
        },
        {
          "name": "party",
          "type": "string"
        },
        {
          "name": "noOfVotes",
          "type": "uint256"
        },
        {
          "name": "exists",
          "type": "bool"
        }
      ],
      "payable": false,
      "stateMutability": "view",
      "type": "function",
      "signature": "0x3477ee2e"
    },
    {
      "constant": true,
      "inputs": [],
      "name": "voterCount",
      "outputs": [
        {
          "name": "",
          "type": "uint256"
        }
      ],
      "payable": false,
      "stateMutability": "view",
      "type": "function",
      "signature": "0x42169e48"
    },
    {
      "constant": true,
      "inputs": [],
      "name": "candidateCount",
      "outputs": [
        {
          "name": "",
          "type": "uint256"
        }
      ],
      "payable": false,
      "stateMutability": "view",
      "type": "function",
      "signature": "0xa9a981a3"
    },
    {
      "constant": true,
      "inputs": [
        {
          "name": "",
          "type": "uint256"
        }
      ],
      "name": "voters",
      "outputs": [
        {
          "name": "name",
          "type": "string"
        },
        {
          "name": "voterId",
          "type": "uint256"
        },
        {
          "name": "accountAddress",
          "type": "address"
        },
        {
          "name": "authorized",
          "type": "bool"
        },
        {
          "name": "voted",
          "type": "bool"
        },
        {
          "name": "exists",
          "type": "bool"
        }
      ],
      "payable": false,
      "stateMutability": "view",
      "type": "function",
      "signature": "0xda58c7d9"
    },
    {
      "inputs": [],
      "payable": false,
      "stateMutability": "nonpayable",
      "type": "constructor",
      "signature": "constructor"
    },
    {
      "anonymous": false,
      "inputs": [
        {
          "indexed": false,
          "name": "name",
          "type": "string"
        },
        {
          "indexed": false,
          "name": "voterId",
          "type": "uint256"
        },
        {
          "indexed": false,
          "name": "accountAddress",
          "type": "address"
        }
      ],
      "name": "VoterCreated",
      "type": "event",
      "signature": "0x7e4422a4ddf8a88b4a912b15dfbe991da3282835439dc55dcce86d27457baaf7"
    },
    {
      "anonymous": false,
      "inputs": [
        {
          "indexed": false,
          "name": "name",
          "type": "string"
        },
        {
          "indexed": false,
          "name": "party",
          "type": "string"
        }
      ],
      "name": "CandidateCreated",
      "type": "event",
      "signature": "0x2e54601340a570f400320f889c40c79d337a860379cf63e97d44c6386230b341"
    },
    {
      "anonymous": false,
      "inputs": [
        {
          "indexed": false,
          "name": "voterId",
          "type": "uint256"
        },
        {
          "indexed": false,
          "name": "candidateId",
          "type": "uint256"
        }
      ],
      "name": "VoterVoted",
      "type": "event",
      "signature": "0x888af08f757422d6a506e900aa26d9b2bdb7566a2983214e29ebdfaf06620554"
    },
    {
      "constant": false,
      "inputs": [],
      "name": "startElection",
      "outputs": [],
      "payable": false,
      "stateMutability": "nonpayable",
      "type": "function",
      "signature": "0x62d73eb8"
    },
    {
      "constant": false,
      "inputs": [],
      "name": "startRegistartionPhase",
      "outputs": [],
      "payable": false,
      "stateMutability": "nonpayable",
      "type": "function",
      "signature": "0x35d56314"
    },
    {
      "constant": false,
      "inputs": [],
      "name": "startVotingPhase",
      "outputs": [],
      "payable": false,
      "stateMutability": "nonpayable",
      "type": "function",
      "signature": "0xcb43284e"
    },
    {
      "constant": false,
      "inputs": [],
      "name": "showResultsPhase",
      "outputs": [],
      "payable": false,
      "stateMutability": "nonpayable",
      "type": "function",
      "signature": "0x014d3b87"
    },
    {
      "constant": false,
      "inputs": [],
      "name": "endElection",
      "outputs": [],
      "payable": false,
      "stateMutability": "nonpayable",
      "type": "function",
      "signature": "0x59f78468"
    },
    {
      "constant": false,
      "inputs": [
        {
          "name": "_name",
          "type": "string"
        },
        {
          "name": "_voterId",
          "type": "uint256"
        }
      ],
      "name": "registerVoter",
      "outputs": [
        {
          "name": "",
          "type": "uint256"
        }
      ],
      "payable": false,
      "stateMutability": "nonpayable",
      "type": "function",
      "signature": "0xe661ea5f"
    },
    {
      "constant": false,
      "inputs": [
        {
          "name": "_name",
          "type": "string"
        },
        {
          "name": "_party",
          "type": "string"
        }
      ],
      "name": "registerCandidate",
      "outputs": [
        {
          "name": "",
          "type": "uint256"
        }
      ],
      "payable": false,
      "stateMutability": "nonpayable",
      "type": "function",
      "signature": "0x0dbce4dd"
    },
    {
      "constant": false,
      "inputs": [
        {
          "name": "_voterId",
          "type": "uint256"
        },
        {
          "name": "_candidateId",
          "type": "uint256"
        }
      ],
      "name": "vote",
      "outputs": [],
      "payable": false,
      "stateMutability": "nonpayable",
      "type": "function",
      "signature": "0xb384abef"
    },
    {
      "constant": false,
      "inputs": [
        {
          "name": "_voterId",
          "type": "uint256"
        }
      ],
      "name": "authorizeVoter",
      "outputs": [],
      "payable": false,
      "stateMutability": "nonpayable",
      "type": "function",
      "signature": "0x535c392f"
    },
    {
      "constant": false,
      "inputs": [],
      "name": "getWinnerOfElection",
      "outputs": [
        {
          "name": "",
          "type": "string"
        },
        {
          "name": "",
          "type": "string"
        },
        {
          "name": "",
          "type": "uint256"
        }
      ],
      "payable": false,
      "stateMutability": "nonpayable",
      "type": "function",
      "signature": "0xd093befd"
    }
  ],
  "bytecode": "0x60806040526000600155600060035534801561001a57600080fd5b5033600560006101000a81548173ffffffffffffffffffffffffffffffffffffffff021916908373ffffffffffffffffffffffffffffffffffffffff16021790555061246f8061006b6000396000f3fe6080604052600436106100db576000357c0100000000000000000000000000000000000000000000000000000000900463ffffffff168063014d3b87146100e05780630dbce4dd146100f75780632280043d146101345780633477ee2e1461015f57806335d56314146101a057806342169e48146101b7578063535c392f146101e257806359f784681461020b57806362d73eb814610222578063a9a981a314610239578063b384abef14610264578063cb43284e1461028d578063d093befd146102a4578063da58c7d9146102d1578063e661ea5f14610313575b600080fd5b3480156100ec57600080fd5b506100f5610350565b005b34801561010357600080fd5b5061011e600480360361011991908101906119d0565b6103eb565b60405161012b919061227c565b60405180910390f35b34801561014057600080fd5b50610149610615565b604051610156919061227c565b60405180910390f35b34801561016b57600080fd5b5061018660048036036101819190810190611a90565b61061b565b604051610197959493929190612297565b60405180910390f35b3480156101ac57600080fd5b506101b561078e565b005b3480156101c357600080fd5b506101cc61082a565b6040516101d9919061227c565b60405180910390f35b3480156101ee57600080fd5b5061020960048036036102049190810190611a90565b610830565b005b34801561021757600080fd5b50610220610993565b005b34801561022e57600080fd5b50610237610a2f565b005b34801561024557600080fd5b5061024e610acb565b60405161025b919061227c565b60405180910390f35b34801561027057600080fd5b5061028b60048036036102869190810190611ab9565b610ad1565b005b34801561029957600080fd5b506102a2610dc3565b005b3480156102b057600080fd5b506102b9610e5f565b6040516102c893929190611fd1565b60405180910390f35b3480156102dd57600080fd5b506102f860048036036102f39190810190611a90565b61104f565b60405161030a96959493929190612054565b60405180910390f35b34801561031f57600080fd5b5061033a60048036036103359190810190611a3c565b61116a565b604051610347919061227c565b60405180910390f35b600560009054906101000a900473ffffffffffffffffffffffffffffffffffffffff1673ffffffffffffffffffffffffffffffffffffffff163373ffffffffffffffffffffffffffffffffffffffff161415156103e2576040517f08c379a00000000000000000000000000000000000000000000000000000000081526004016103d99061213c565b60405180910390fd5b60048081905550565b6000600560009054906101000a900473ffffffffffffffffffffffffffffffffffffffff1673ffffffffffffffffffffffffffffffffffffffff163373ffffffffffffffffffffffffffffffffffffffff1614151561047f576040517f08c379a00000000000000000000000000000000000000000000000000000000081526004016104769061213c565b60405180910390fd5b60026004541415156104c6576040517f08c379a00000000000000000000000000000000000000000000000000000000081526004016104bd906121bc565b60405180910390fd5b6104cf82611465565b1515610510576040517f08c379a0000000000000000000000000000000000000000000000000000000008152600401610507906120fc565b60405180910390fd5b60036000815480929190600101919050555060a0604051908101604052806003548152602001848152602001838152602001600081526020016001151581525060026000600354815260200190815260200160002060008201518160000155602082015181600101908051906020019061058b9291906118c1565b5060408201518160020190805190602001906105a89291906118c1565b506060820151816003015560808201518160040160006101000a81548160ff0219169083151502179055509050507f2e54601340a570f400320f889c40c79d337a860379cf63e97d44c6386230b3418383604051610607929190611f9a565b60405180910390a192915050565b60045481565b6002602052806000526040600020600091509050806000015490806001018054600181600116156101000203166002900480601f0160208091040260200160405190810160405280929190818152602001828054600181600116156101000203166002900480156106cd5780601f106106a2576101008083540402835291602001916106cd565b820191906000526020600020905b8154815290600101906020018083116106b057829003601f168201915b505050505090806002018054600181600116156101000203166002900480601f01602080910402602001604051908101604052809291908181526020018280546001816001161561010002031660029004801561076b5780601f106107405761010080835404028352916020019161076b565b820191906000526020600020905b81548152906001019060200180831161074e57829003601f168201915b5050505050908060030154908060040160009054906101000a900460ff16905085565b600560009054906101000a900473ffffffffffffffffffffffffffffffffffffffff1673ffffffffffffffffffffffffffffffffffffffff163373ffffffffffffffffffffffffffffffffffffffff16141515610820576040517f08c379a00000000000000000000000000000000000000000000000000000000081526004016108179061213c565b60405180910390fd5b6002600481905550565b60015481565b600560009054906101000a900473ffffffffffffffffffffffffffffffffffffffff1673ffffffffffffffffffffffffffffffffffffffff163373ffffffffffffffffffffffffffffffffffffffff161415156108c2576040517f08c379a00000000000000000000000000000000000000000000000000000000081526004016108b99061213c565b60405180910390fd5b6002600454141515610909576040517f08c379a00000000000000000000000000000000000000000000000000000000081526004016109009061221c565b60405180910390fd5b6109128161163d565b151515610954576040517f08c379a000000000000000000000000000000000000000000000000000000000815260040161094b906121fc565b60405180910390fd5b600061095f826116e2565b9050600160008083815260200190815260200160002060020160146101000a81548160ff0219169083151502179055505050565b600560009054906101000a900473ffffffffffffffffffffffffffffffffffffffff1673ffffffffffffffffffffffffffffffffffffffff163373ffffffffffffffffffffffffffffffffffffffff16141515610a25576040517f08c379a0000000000000000000000000000000000000000000000000000000008152600401610a1c9061213c565b60405180910390fd5b6000600481905550565b600560009054906101000a900473ffffffffffffffffffffffffffffffffffffffff1673ffffffffffffffffffffffffffffffffffffffff163373ffffffffffffffffffffffffffffffffffffffff16141515610ac1576040517f08c379a0000000000000000000000000000000000000000000000000000000008152600401610ab89061213c565b60405180910390fd5b6001600481905550565b60035481565b6003600454141515610b18576040517f08c379a0000000000000000000000000000000000000000000000000000000008152600401610b0f9061215c565b60405180910390fd5b610b218261163d565b151515610b63576040517f08c379a0000000000000000000000000000000000000000000000000000000008152600401610b5a9061217c565b60405180910390fd5b600081118015610b7557506003548111155b1515610bb6576040517f08c379a0000000000000000000000000000000000000000000000000000000008152600401610bad9061223c565b60405180910390fd5b6000610bc1836116e2565b90503373ffffffffffffffffffffffffffffffffffffffff1660008083815260200190815260200160002060020160009054906101000a900473ffffffffffffffffffffffffffffffffffffffff1673ffffffffffffffffffffffffffffffffffffffff16141515610c68576040517f08c379a0000000000000000000000000000000000000000000000000000000008152600401610c5f9061211c565b60405180910390fd5b60008082815260200190815260200160002060020160149054906101000a900460ff161515610ccc576040517f08c379a0000000000000000000000000000000000000000000000000000000008152600401610cc39061219c565b60405180910390fd5b60008082815260200190815260200160002060020160159054906101000a900460ff16151515610d31576040517f08c379a0000000000000000000000000000000000000000000000000000000008152600401610d28906120dc565b60405180910390fd5b6002600083815260200190815260200160002060030160008154809291906001019190505550600160008083815260200190815260200160002060020160156101000a81548160ff0219169083151502179055507f888af08f757422d6a506e900aa26d9b2bdb7566a2983214e29ebdfaf066205548383604051610db69291906122f8565b60405180910390a1505050565b600560009054906101000a900473ffffffffffffffffffffffffffffffffffffffff1673ffffffffffffffffffffffffffffffffffffffff163373ffffffffffffffffffffffffffffffffffffffff16141515610e55576040517f08c379a0000000000000000000000000000000000000000000000000000000008152600401610e4c9061213c565b60405180910390fd5b6003600481905550565b60608060008060009050600080905060008090505b600354811015610ec6576002600082815260200190815260200160002060030154831015610eb957600260008281526020019081526020016000206003015492508091505b8080600101915050610e74565b5060026000828152602001908152602001600020600101600260008381526020019081526020016000206002016002600084815260200190815260200160002060030154828054600181600116156101000203166002900480601f016020809104026020016040519081016040528092919081815260200182805460018160011615610100020316600290048015610f9f5780601f10610f7457610100808354040283529160200191610f9f565b820191906000526020600020905b815481529060010190602001808311610f8257829003601f168201915b50505050509250818054600181600116156101000203166002900480601f01602080910402602001604051908101604052809291908181526020018280546001816001161561010002031660029004801561103b5780601f106110105761010080835404028352916020019161103b565b820191906000526020600020905b81548152906001019060200180831161101e57829003601f168201915b505050505091509450945094505050909192565b6000602052806000526040600020600091509050806000018054600181600116156101000203166002900480601f0160208091040260200160405190810160405280929190818152602001828054600181600116156101000203166002900480156110fb5780601f106110d0576101008083540402835291602001916110fb565b820191906000526020600020905b8154815290600101906020018083116110de57829003601f168201915b5050505050908060010154908060020160009054906101000a900473ffffffffffffffffffffffffffffffffffffffff16908060020160149054906101000a900460ff16908060020160159054906101000a900460ff16908060020160169054906101000a900460ff16905086565b600060026004541415156111b3576040517f08c379a00000000000000000000000000000000000000000000000000000000081526004016111aa906121bc565b60405180910390fd5b6000339050600560009054906101000a900473ffffffffffffffffffffffffffffffffffffffff1673ffffffffffffffffffffffffffffffffffffffff168173ffffffffffffffffffffffffffffffffffffffff161415151561124b576040517f08c379a0000000000000000000000000000000000000000000000000000000008152600401611242906121dc565b60405180910390fd5b61125481611786565b1515611295576040517f08c379a000000000000000000000000000000000000000000000000000000000815260040161128c906120bc565b60405180910390fd5b61129e8361163d565b15156112df576040517f08c379a00000000000000000000000000000000000000000000000000000000081526004016112d69061225c565b60405180910390fd5b60016000815480929190600101919050555060c0604051908101604052808581526020018481526020018273ffffffffffffffffffffffffffffffffffffffff168152602001600015158152602001600015158152602001600115158152506000806001548152602001908152602001600020600082015181600001908051906020019061136e9291906118c1565b506020820151816001015560408201518160020160006101000a81548173ffffffffffffffffffffffffffffffffffffffff021916908373ffffffffffffffffffffffffffffffffffffffff16021790555060608201518160020160146101000a81548160ff02191690831515021790555060808201518160020160156101000a81548160ff02191690831515021790555060a08201518160020160166101000a81548160ff0219169083151502179055509050507f7e4422a4ddf8a88b4a912b15dfbe991da3282835439dc55dcce86d27457baaf784848360405161145693929190612016565b60405180910390a15092915050565b600080600190505b60035481111515611632576060600260008381526020019081526020016000206002018054600181600116156101000203166002900480601f0160208091040260200160405190810160405280929190818152602001828054600181600116156101000203166002900480156115245780601f106114f957610100808354040283529160200191611524565b820191906000526020600020905b81548152906001019060200180831161150757829003601f168201915b50505050509050836040516020018082805190602001908083835b602083101515611564578051825260208201915060208101905060208303925061153f565b6001836020036101000a03801982511681845116808217855250505050505090500191505060405160208183030381529060405280519060200120816040516020018082805190602001908083835b6020831015156115d857805182526020820191506020810190506020830392506115b3565b6001836020036101000a03801982511681845116808217855250505050505090500191505060405160208183030381529060405280519060200120141561162457600092505050611638565b50808060010191505061146d565b50600190505b919050565b600080600190505b600154811115156116d757600080600083815260200190815260200160002060010154905083604051602001808281526020019150506040516020818303038152906040528051906020012081604051602001808281526020019150506040516020818303038152906040528051906020012014156116c9576000925050506116dd565b508080600101915050611645565b50600190505b919050565b600080600190505b6001548111151561177b576000806000838152602001908152602001600020600101549050836040516020018082815260200191505060405160208183030381529060405280519060200120816040516020018082815260200191505060405160208183030381529060405280519060200120141561176d578192505050611781565b5080806001019150506116ea565b50600090505b919050565b600080600190505b600154811115156118b657600080600083815260200190815260200160002060020160009054906101000a900473ffffffffffffffffffffffffffffffffffffffff16905083604051602001808273ffffffffffffffffffffffffffffffffffffffff1673ffffffffffffffffffffffffffffffffffffffff166c010000000000000000000000000281526014019150506040516020818303038152906040528051906020012081604051602001808273ffffffffffffffffffffffffffffffffffffffff1673ffffffffffffffffffffffffffffffffffffffff166c010000000000000000000000000281526014019150506040516020818303038152906040528051906020012014156118a8576000925050506118bc565b50808060010191505061178e565b50600190505b919050565b828054600181600116156101000203166002900490600052602060002090601f016020900481019282601f1061190257805160ff1916838001178555611930565b82800160010185558215611930579182015b8281111561192f578251825591602001919060010190611914565b5b50905061193d9190611941565b5090565b61196391905b8082111561195f576000816000905550600101611947565b5090565b90565b600082601f830112151561197957600080fd5b813561198c6119878261234e565b612321565b915080825260208301602083018583830111156119a857600080fd5b6119b38382846123e2565b50505092915050565b60006119c882356123d8565b905092915050565b600080604083850312156119e357600080fd5b600083013567ffffffffffffffff8111156119fd57600080fd5b611a0985828601611966565b925050602083013567ffffffffffffffff811115611a2657600080fd5b611a3285828601611966565b9150509250929050565b60008060408385031215611a4f57600080fd5b600083013567ffffffffffffffff811115611a6957600080fd5b611a7585828601611966565b9250506020611a86858286016119bc565b9150509250929050565b600060208284031215611aa257600080fd5b6000611ab0848285016119bc565b91505092915050565b60008060408385031215611acc57600080fd5b6000611ada858286016119bc565b9250506020611aeb858286016119bc565b9150509250929050565b611afe81612390565b82525050565b611b0d816123a2565b82525050565b6000611b1e82612385565b808452611b328160208601602086016123f1565b611b3b81612424565b602085010191505092915050565b6000611b548261237a565b808452611b688160208601602086016123f1565b611b7181612424565b602085010191505092915050565b6000602a82527f54686973204163636f756e74204164647265737320697320616c72656164792060208301527f72656769737465726564000000000000000000000000000000000000000000006040830152606082019050919050565b6000601782527f596f75206861766520616c726561647920766f7465642e0000000000000000006020830152604082019050919050565b6000602182527f5468697320506172747920697320616c7265616479207265676973746572656460208301527f2e000000000000000000000000000000000000000000000000000000000000006040830152606082019050919050565b6000602c82527f506c6561736520766f746520776974682072656769737465726564204163636f60208301527f756e7420416464726573732e00000000000000000000000000000000000000006040830152606082019050919050565b6000603282527f596f7520646f6e7420686176652072696768747320746f20706572666f726d2060208301527f41444d494e206f7065726174696f6e73202100000000000000000000000000006040830152606082019050919050565b6000601982527f54686973206973206e6f7420566f74696e672050686173652e000000000000006020830152604082019050919050565b6000601f82527f596f7520617265206e6f74207265676973746572656420746f20766f74652e006020830152604082019050919050565b6000601e82527f596f7520617265206e6f7420617574686f72697a6520746f20766f74652e00006020830152604082019050919050565b6000601f82527f54686973206973206e6f7420526567697374726174696f6e2050686173652e006020830152604082019050919050565b6000602982527f596f752063616e6e6f7420757365206f776e6572206164647265737320746f2060208301527f72656769737465722e00000000000000000000000000000000000000000000006040830152606082019050919050565b6000602082527f5468697320766f746572204944206973206e6f7420726567697374657265642e6020830152604082019050919050565b6000603482527f417574686f72697a6174696f6e20697320616c6c6f77656420696e205265676960208301527f7374726174696f6e205068617365206f6e6c792e0000000000000000000000006040830152606082019050919050565b6000601f82527f43616e6469646174652073656c656374696f6e20697320696e76616c69642e006020830152604082019050919050565b6000602482527f5468697320566f74657220496420697320616c7265616479207265676973746560208301527f7265642e000000000000000000000000000000000000000000000000000000006040830152606082019050919050565b611f94816123ce565b82525050565b60006040820190508181036000830152611fb48185611b13565b90508181036020830152611fc88184611b13565b90509392505050565b60006060820190508181036000830152611feb8186611b13565b90508181036020830152611fff8185611b13565b905061200e6040830184611f8b565b949350505050565b600060608201905081810360008301526120308186611b13565b905061203f6020830185611f8b565b61204c6040830184611af5565b949350505050565b600060c082019050818103600083015261206e8189611b49565b905061207d6020830188611f8b565b61208a6040830187611af5565b6120976060830186611b04565b6120a46080830185611b04565b6120b160a0830184611b04565b979650505050505050565b600060208201905081810360008301526120d581611b7f565b9050919050565b600060208201905081810360008301526120f581611bdc565b9050919050565b6000602082019050818103600083015261211581611c13565b9050919050565b6000602082019050818103600083015261213581611c70565b9050919050565b6000602082019050818103600083015261215581611ccd565b9050919050565b6000602082019050818103600083015261217581611d2a565b9050919050565b6000602082019050818103600083015261219581611d61565b9050919050565b600060208201905081810360008301526121b581611d98565b9050919050565b600060208201905081810360008301526121d581611dcf565b9050919050565b600060208201905081810360008301526121f581611e06565b9050919050565b6000602082019050818103600083015261221581611e63565b9050919050565b6000602082019050818103600083015261223581611e9a565b9050919050565b6000602082019050818103600083015261225581611ef7565b9050919050565b6000602082019050818103600083015261227581611f2e565b9050919050565b60006020820190506122916000830184611f8b565b92915050565b600060a0820190506122ac6000830188611f8b565b81810360208301526122be8187611b49565b905081810360408301526122d28186611b49565b90506122e16060830185611f8b565b6122ee6080830184611b04565b9695505050505050565b600060408201905061230d6000830185611f8b565b61231a6020830184611f8b565b9392505050565b6000604051905081810181811067ffffffffffffffff8211171561234457600080fd5b8060405250919050565b600067ffffffffffffffff82111561236557600080fd5b601f19601f8301169050602081019050919050565b600081519050919050565b600081519050919050565b600061239b826123ae565b9050919050565b60008115159050919050565b600073ffffffffffffffffffffffffffffffffffffffff82169050919050565b6000819050919050565b6000819050919050565b82818337600083830152505050565b60005b8381101561240f5780820151818401526020810190506123f4565b8381111561241e576000848401525b50505050565b6000601f19601f830116905091905056fea265627a7a72305820db3cfe0a6b12c70214bd6163202355be2481d246dd27cfb7d3d944a705a537a06c6578706572696d656e74616cf50037",
  "source": "pragma solidity >=0.4.22 <0.9.0;\r\npragma experimental ABIEncoderV2;\r\n\r\ncontract Election {\r\n    struct Voter {\r\n        string name;\r\n        uint256 voterId;\r\n        address accountAddress;\r\n        bool authorized;\r\n        bool voted;\r\n        bool exists;\r\n    }\r\n\r\n    struct Candidate {\r\n        uint256 id;\r\n        string name;\r\n        string party;\r\n        uint256 noOfVotes;\r\n        bool exists;\r\n    }\r\n\r\n    mapping(uint256 => Voter) public voters;\r\n    uint256 public voterCount = 0;\r\n\r\n    mapping(uint256 => Candidate) public candidates;\r\n    uint256 public candidateCount = 0;\r\n\r\n    uint256 public electionState;\r\n\r\n    address adminAddress;\r\n\r\n    constructor() public {\r\n        adminAddress = msg.sender;\r\n    }\r\n\r\n    modifier onlyOwner() {\r\n        require(\r\n            msg.sender == adminAddress,\r\n            \"You dont have rights to perform ADMIN operations !\"\r\n        );\r\n        _;\r\n    }\r\n\r\n    function startElection() public onlyOwner {\r\n        electionState = 1;\r\n    }\r\n\r\n    function startRegistartionPhase() public onlyOwner {\r\n        electionState = 2;\r\n    }\r\n\r\n    function startVotingPhase() public onlyOwner {\r\n        electionState = 3;\r\n    }\r\n\r\n    function showResultsPhase() public onlyOwner {\r\n        electionState = 4;\r\n    }\r\n\r\n    function endElection() public onlyOwner {\r\n        electionState = 0;\r\n    }\r\n\r\n    function registerVoter(string memory _name, uint256 _voterId)\r\n        public\r\n        returns (uint256)\r\n    {\r\n        require(electionState == 2, \"This is not Registration Phase.\");\r\n        address _accountAddress = msg.sender;\r\n        require(\r\n            _accountAddress != adminAddress,\r\n            \"You cannot use owner address to register.\"\r\n        );\r\n        require(\r\n            checkIfAddressExist(_accountAddress),\r\n            \"This Account Address is already registered\"\r\n        );\r\n        require(\r\n            checkIfVoterIdExist(_voterId),\r\n            \"This Voter Id is already registered.\"\r\n        );\r\n        voterCount++;\r\n        voters[voterCount] = Voter(\r\n            _name,\r\n            _voterId,\r\n            _accountAddress,\r\n            false,\r\n            false,\r\n            true\r\n        );\r\n        emit VoterCreated(_name, _voterId, _accountAddress);\r\n    }\r\n\r\n    function registerCandidate(string memory _name, string memory _party)\r\n        public\r\n        onlyOwner\r\n        returns (uint256)\r\n    {\r\n        require(electionState == 2, \"This is not Registration Phase.\");\r\n        require(checkIfPartyExist(_party), \"This Party is already registered.\");\r\n        candidateCount++;\r\n        candidates[candidateCount] = Candidate(\r\n            candidateCount,\r\n            _name,\r\n            _party,\r\n            0,\r\n            true\r\n        );\r\n        emit CandidateCreated(_name, _party);\r\n    }\r\n\r\n    function vote(uint256 _voterId, uint256 _candidateId) public {\r\n        require(electionState == 3, \"This is not Voting Phase.\");\r\n        require(\r\n            !checkIfVoterIdExist(_voterId),\r\n            \"You are not registered to vote.\"\r\n        );\r\n        require(\r\n            _candidateId > 0 && _candidateId <= candidateCount,\r\n            \"Candidate selection is invalid.\"\r\n        );\r\n        uint256 id = returnCount(_voterId);\r\n        require(\r\n            voters[id].accountAddress == msg.sender,\r\n            \"Please vote with registered Account Address.\"\r\n        );\r\n        require(voters[id].authorized, \"You are not authorize to vote.\");\r\n        require(!voters[id].voted, \"You have already voted.\");\r\n        candidates[_candidateId].noOfVotes++;\r\n        voters[id].voted = true;\r\n        emit VoterVoted(_voterId, _candidateId);\r\n    }\r\n\r\n    function authorizeVoter(uint256 _voterId) public onlyOwner {\r\n        require(\r\n            electionState == 2,\r\n            \"Authorization is allowed in Registration Phase only.\"\r\n        );\r\n        require(\r\n            !checkIfVoterIdExist(_voterId),\r\n            \"This voter ID is not registered.\"\r\n        );\r\n        uint256 id = returnCount(_voterId);\r\n        voters[id].authorized = true;\r\n    }\r\n\r\n    function returnCount(uint256 _inputVoterId) private returns (uint256) {\r\n        for (uint256 i = 1; i <= voterCount; i++) {\r\n            uint256 idVoter = voters[i].voterId;\r\n            if (\r\n                keccak256(abi.encodePacked(idVoter)) ==\r\n                keccak256(abi.encodePacked(_inputVoterId))\r\n            ) {\r\n                return i;\r\n                break;\r\n            }\r\n        }\r\n        return 0;\r\n    }\r\n\r\n    function checkIfVoterIdExist(uint256 _inputVoterId) private returns (bool) {\r\n        for (uint256 i = 1; i <= voterCount; i++) {\r\n            uint256 idVoter = voters[i].voterId;\r\n            if (\r\n                keccak256(abi.encodePacked(idVoter)) ==\r\n                keccak256(abi.encodePacked(_inputVoterId))\r\n            ) {\r\n                return false;\r\n                break;\r\n            }\r\n        }\r\n        return true;\r\n    }\r\n\r\n    function checkIfAddressExist(address _inputAccountAddress)\r\n        private\r\n        returns (bool)\r\n    {\r\n        for (uint256 i = 1; i <= voterCount; i++) {\r\n            address addressAccount = voters[i].accountAddress;\r\n            if (\r\n                keccak256(abi.encodePacked(addressAccount)) ==\r\n                keccak256(abi.encodePacked(_inputAccountAddress))\r\n            ) {\r\n                return false;\r\n                break;\r\n            }\r\n        }\r\n        return true;\r\n    }\r\n\r\n    function checkIfPartyExist(string memory _inputParty)\r\n        private\r\n        returns (bool)\r\n    {\r\n        for (uint256 i = 1; i <= candidateCount; i++) {\r\n            string memory partyName = candidates[i].party;\r\n            if (\r\n                keccak256(abi.encodePacked(partyName)) ==\r\n                keccak256(abi.encodePacked(_inputParty))\r\n            ) {\r\n                return false;\r\n                break;\r\n            }\r\n        }\r\n        return true;\r\n    }\r\n\r\n    function getWinnerOfElection()\r\n        public\r\n        returns (\r\n            string memory,\r\n            string memory,\r\n            uint256\r\n        )\r\n    {\r\n        uint256 maxVote = 0;\r\n        uint256 maxVoteCandidateId = 0;\r\n        for (uint256 i = 0; i < candidateCount; i++) {\r\n            if (maxVote < candidates[i].noOfVotes) {\r\n                maxVote = candidates[i].noOfVotes;\r\n                maxVoteCandidateId = i;\r\n            }\r\n        }\r\n        return (\r\n            candidates[maxVoteCandidateId].name,\r\n            candidates[maxVoteCandidateId].party,\r\n            candidates[maxVoteCandidateId].noOfVotes\r\n        );\r\n    }\r\n\r\n    event VoterCreated(string name, uint256 voterId, address accountAddress);\r\n    event CandidateCreated(string name, string party);\r\n    event VoterVoted(uint256 voterId, uint256 candidateId);\r\n}\r\n",
  "sourcePath": "C:/Users/harshad/Documents/Decentralized-Voting-Management-System/contracts/Election.sol",
  "compiler": {
    "name": "solc",
    "version": "0.5.0+commit.1d4f565a.Emscripten.clang"
  },
  "schemaVersion": "3.0.1",
  "updatedAt": "2022-03-31T17:20:56.312Z",
  "devdoc": {
    "methods": {}
  },
  "userdoc": {
    "methods": {}
  }
}